{
  "contractName": "Subscription",
  "abi": [
    {
      "inputs": [
        {
          "internalType": "address",
          "name": "_creator",
          "type": "address"
        },
        {
          "internalType": "string",
          "name": "_id",
          "type": "string"
        },
        {
          "internalType": "address",
          "name": "token_adr",
          "type": "address"
        }
      ],
      "stateMutability": "nonpayable",
      "type": "constructor"
    },
    {
      "anonymous": false,
      "inputs": [
        {
          "indexed": true,
          "internalType": "address",
          "name": "owner",
          "type": "address"
        },
        {
          "indexed": true,
          "internalType": "address",
          "name": "approved",
          "type": "address"
        },
        {
          "indexed": true,
          "internalType": "uint256",
          "name": "tokenId",
          "type": "uint256"
        }
      ],
      "name": "Approval",
      "type": "event"
    },
    {
      "anonymous": false,
      "inputs": [
        {
          "indexed": true,
          "internalType": "address",
          "name": "owner",
          "type": "address"
        },
        {
          "indexed": true,
          "internalType": "address",
          "name": "operator",
          "type": "address"
        },
        {
          "indexed": false,
          "internalType": "bool",
          "name": "approved",
          "type": "bool"
        }
      ],
      "name": "ApprovalForAll",
      "type": "event"
    },
    {
      "anonymous": false,
      "inputs": [
        {
          "indexed": true,
          "internalType": "address",
          "name": "previousOwner",
          "type": "address"
        },
        {
          "indexed": true,
          "internalType": "address",
          "name": "newOwner",
          "type": "address"
        }
      ],
      "name": "OwnershipTransferred",
      "type": "event"
    },
    {
      "anonymous": false,
      "inputs": [
        {
          "indexed": true,
          "internalType": "address",
          "name": "from",
          "type": "address"
        },
        {
          "indexed": true,
          "internalType": "address",
          "name": "to",
          "type": "address"
        },
        {
          "indexed": true,
          "internalType": "uint256",
          "name": "tokenId",
          "type": "uint256"
        }
      ],
      "name": "Transfer",
      "type": "event"
    },
    {
      "inputs": [
        {
          "internalType": "address",
          "name": "",
          "type": "address"
        }
      ],
      "name": "expirations",
      "outputs": [
        {
          "internalType": "uint256",
          "name": "",
          "type": "uint256"
        }
      ],
      "stateMutability": "view",
      "type": "function"
    },
    {
      "inputs": [],
      "name": "owner",
      "outputs": [
        {
          "internalType": "address",
          "name": "",
          "type": "address"
        }
      ],
      "stateMutability": "view",
      "type": "function"
    },
    {
      "inputs": [],
      "name": "renounceOwnership",
      "outputs": [],
      "stateMutability": "nonpayable",
      "type": "function"
    },
    {
      "inputs": [
        {
          "internalType": "address",
          "name": "",
          "type": "address"
        }
      ],
      "name": "subscription_price",
      "outputs": [
        {
          "internalType": "uint256",
          "name": "",
          "type": "uint256"
        }
      ],
      "stateMutability": "view",
      "type": "function"
    },
    {
      "inputs": [
        {
          "internalType": "address",
          "name": "newOwner",
          "type": "address"
        }
      ],
      "name": "transferOwnership",
      "outputs": [],
      "stateMutability": "nonpayable",
      "type": "function"
    },
    {
      "inputs": [
        {
          "internalType": "address",
          "name": "_owner",
          "type": "address"
        }
      ],
      "name": "balanceOf",
      "outputs": [
        {
          "internalType": "uint256",
          "name": "",
          "type": "uint256"
        }
      ],
      "stateMutability": "view",
      "type": "function"
    },
    {
      "inputs": [
        {
          "internalType": "uint256",
          "name": "tokenId",
          "type": "uint256"
        }
      ],
      "name": "ownerOf",
      "outputs": [
        {
          "internalType": "address",
          "name": "",
          "type": "address"
        }
      ],
      "stateMutability": "view",
      "type": "function"
    },
    {
      "inputs": [],
      "name": "name",
      "outputs": [
        {
          "internalType": "string",
          "name": "",
          "type": "string"
        }
      ],
      "stateMutability": "view",
      "type": "function"
    },
    {
      "inputs": [],
      "name": "symbol",
      "outputs": [
        {
          "internalType": "string",
          "name": "",
          "type": "string"
        }
      ],
      "stateMutability": "view",
      "type": "function"
    },
    {
      "inputs": [
        {
          "internalType": "uint256",
          "name": "length",
          "type": "uint256"
        }
      ],
      "name": "newSub",
      "outputs": [],
      "stateMutability": "nonpayable",
      "type": "function"
    },
    {
      "inputs": [
        {
          "internalType": "uint256",
          "name": "length",
          "type": "uint256"
        }
      ],
      "name": "renewSub",
      "outputs": [],
      "stateMutability": "nonpayable",
      "type": "function"
    },
    {
      "inputs": [
        {
          "internalType": "uint256",
          "name": "_price",
          "type": "uint256"
        }
      ],
      "name": "setCurrentPrice",
      "outputs": [],
      "stateMutability": "nonpayable",
      "type": "function"
    },
    {
      "inputs": [
        {
          "internalType": "address",
          "name": "to",
          "type": "address"
        },
        {
          "internalType": "uint256",
          "name": "tokenId",
          "type": "uint256"
        }
      ],
      "name": "approve",
      "outputs": [],
      "stateMutability": "nonpayable",
      "type": "function"
    },
    {
      "inputs": [
        {
          "internalType": "uint256",
          "name": "tokenId",
          "type": "uint256"
        }
      ],
      "name": "getApproved",
      "outputs": [
        {
          "internalType": "address",
          "name": "",
          "type": "address"
        }
      ],
      "stateMutability": "view",
      "type": "function"
    },
    {
      "inputs": [
        {
          "internalType": "address",
          "name": "operator",
          "type": "address"
        },
        {
          "internalType": "bool",
          "name": "approved",
          "type": "bool"
        }
      ],
      "name": "setApprovalForAll",
      "outputs": [],
      "stateMutability": "nonpayable",
      "type": "function"
    },
    {
      "inputs": [
        {
          "internalType": "address",
          "name": "owner",
          "type": "address"
        },
        {
          "internalType": "address",
          "name": "operator",
          "type": "address"
        }
      ],
      "name": "isApprovedForAll",
      "outputs": [
        {
          "internalType": "bool",
          "name": "",
          "type": "bool"
        }
      ],
      "stateMutability": "view",
      "type": "function"
    },
    {
      "inputs": [
        {
          "internalType": "address",
          "name": "from",
          "type": "address"
        },
        {
          "internalType": "address",
          "name": "to",
          "type": "address"
        },
        {
          "internalType": "uint256",
          "name": "tokenId",
          "type": "uint256"
        }
      ],
      "name": "transferFrom",
      "outputs": [],
      "stateMutability": "nonpayable",
      "type": "function"
    },
    {
      "inputs": [
        {
          "internalType": "address",
          "name": "from",
          "type": "address"
        },
        {
          "internalType": "address",
          "name": "to",
          "type": "address"
        },
        {
          "internalType": "uint256",
          "name": "tokenId",
          "type": "uint256"
        }
      ],
      "name": "safeTransferFrom",
      "outputs": [],
      "stateMutability": "nonpayable",
      "type": "function"
    },
    {
      "inputs": [
        {
          "internalType": "address",
          "name": "from",
          "type": "address"
        },
        {
          "internalType": "address",
          "name": "to",
          "type": "address"
        },
        {
          "internalType": "uint256",
          "name": "tokenId",
          "type": "uint256"
        },
        {
          "internalType": "bytes",
          "name": "_data",
          "type": "bytes"
        }
      ],
      "name": "safeTransferFrom",
      "outputs": [],
      "stateMutability": "nonpayable",
      "type": "function"
    },
    {
      "inputs": [
        {
          "internalType": "bytes4",
          "name": "interfaceId",
          "type": "bytes4"
        }
      ],
      "name": "supportsInterface",
      "outputs": [
        {
          "internalType": "bool",
          "name": "",
          "type": "bool"
        }
      ],
      "stateMutability": "pure",
      "type": "function"
    }
  ],
  "bytecode": "0x60806040523480156200001157600080fd5b50604051620010683803806200106883398101604081905262000034916200019c565b6200003f3362000089565b815162000054906004906020850190620000d9565b50600380546001600160a01b039485166001600160a01b031991821617909155600580549290941691161790915550620002f4565b600080546001600160a01b038381166001600160a01b0319831681178455604051919092169283917f8be0079c531659141344cd1fd0a4f28419497f9722a3daafe3b4186f6b6457e09190a35050565b828054620000e790620002a1565b90600052602060002090601f0160209004810192826200010b576000855562000156565b82601f106200012657805160ff191683800117855562000156565b8280016001018555821562000156579182015b828111156200015657825182559160200191906001019062000139565b506200016492915062000168565b5090565b5b8082111562000164576000815560010162000169565b80516001600160a01b03811681146200019757600080fd5b919050565b600080600060608486031215620001b257600080fd5b620001bd846200017f565b602085810151919450906001600160401b0380821115620001dd57600080fd5b818701915087601f830112620001f257600080fd5b815181811115620002075762000207620002de565b604051601f8201601f19908116603f01168101908382118183101715620002325762000232620002de565b816040528281528a868487010111156200024b57600080fd5b600093505b828410156200026f578484018601518185018701529285019262000250565b82841115620002815760008684830101525b80975050505050505062000298604085016200017f565b90509250925092565b600181811c90821680620002b657607f821691505b60208210811415620002d857634e487b7160e01b600052602260045260246000fd5b50919050565b634e487b7160e01b600052604160045260246000fd5b610d6480620003046000396000f3fe608060405234801561001057600080fd5b506004361061012c5760003560e01c806370a08231116100ad578063a22cb46511610071578063a22cb46514610291578063b88d4fde1461029f578063c1868da8146102b3578063e985e9c5146102c6578063f2fde38b146102dc57600080fd5b806370a082311461024a578063715018a61461025d57806389b49bcc146102655780638da5cb5b1461027857806395d89b411461028957600080fd5b806318b20071116100f457806318b20071146101f157806323b872dd146102045780633c74db0f1461021757806342842e0e146102045780636352211e1461023757600080fd5b806301ffc9a71461013157806306fdde031461015a578063081812fc14610189578063095ea7b3146101af5780631184b597146101c3575b600080fd5b61014561013f366004610bb6565b50600090565b60405190151581526020015b60405180910390f35b60408051808201909152600a8152692b27aca926a29029aaa160b11b60208201525b6040516101519190610c12565b61019761013f366004610be0565b6040516001600160a01b039091168152602001610151565b6101c16101bd366004610b6f565b5050565b005b6101e36101d13660046109cb565b60096020526000908152604090205481565b604051908152602001610151565b6101c16101ff366004610be0565b6102ef565b6101c1610212366004610a20565b505050565b6101e36102253660046109cb565b60086020526000908152604090205481565b610197610245366004610be0565b61035c565b6101e36102583660046109cb565b6103d9565b6101c1610472565b6101c1610273366004610be0565b6104d8565b6000546001600160a01b0316610197565b61017c610573565b6101c16101bd366004610b38565b6101c16102ad366004610a5c565b50505050565b6101c16102c1366004610be0565b610605565b6101456102d43660046109ed565b600092915050565b6101c16102ea3660046109cb565b610705565b6003546001600160a01b031633148061031257506000546001600160a01b031633145b6103575760405162461bcd60e51b815260206004820152601160248201527014dd588e881d5b985d5d1a1bdc9a5e9959607a1b60448201526064015b60405180910390fd5b600255565b6000818152600660205260408120546001600160a01b0316806103d35760405162461bcd60e51b815260206004820152602960248201527f4552433732313a206f776e657220717565727920666f72206e6f6e657869737460448201526832b73a103a37b5b2b760b91b606482015260840161034e565b92915050565b60006001600160a01b0382166104445760405162461bcd60e51b815260206004820152602a60248201527f4552433732313a2062616c616e636520717565727920666f7220746865207a65604482015269726f206164647265737360b01b606482015260840161034e565b6001600160a01b0382166000908152600760205260409020541561046a57506001919050565b506000919050565b6000546001600160a01b031633146104cc5760405162461bcd60e51b815260206004820181905260248201527f4f776e61626c653a2063616c6c6572206973206e6f7420746865206f776e6572604482015260640161034e565b6104d660006107c9565b565b8061051c5760405162461bcd60e51b815260206004820152601460248201527324b73b30b634b21039bab110323ab930ba34b7b760611b604482015260640161034e565b336000908152600760205260409020546105675760405162461bcd60e51b815260206004820152600c60248201526b139bc81cdd58881bdddb995960a21b604482015260640161034e565b61057081610819565b50565b60606004805461058290610c9e565b80601f01602080910402602001604051908101604052809291908181526020018280546105ae90610c9e565b80156105fb5780601f106105d0576101008083540402835291602001916105fb565b820191906000526020600020905b8154815290600101906020018083116105de57829003601f168201915b5050505050905090565b806106495760405162461bcd60e51b815260206004820152601460248201527324b73b30b634b21039bab110323ab930ba34b7b760611b604482015260640161034e565b33600090815260076020526040902054156106775733600090815260076020526040902054610570906104d8565b6002543360008181526009602090815260408083209490945560018054600783528584208190558352600690915292812080546001600160a01b031916909217909155815491906106c783610cd9565b9091555050600154604051339030907fddf252ad1be2c89b69c2b068fc378daa952ba7f163c4a11628f55a4df523b3ef90600090a461057081610819565b6000546001600160a01b0316331461075f5760405162461bcd60e51b815260206004820181905260248201527f4f776e61626c653a2063616c6c6572206973206e6f7420746865206f776e6572604482015260640161034e565b6001600160a01b0381166107c45760405162461bcd60e51b815260206004820152602660248201527f4f776e61626c653a206e6577206f776e657220697320746865207a65726f206160448201526564647265737360d01b606482015260840161034e565b610570815b600080546001600160a01b038381166001600160a01b0319831681178455604051919092169283917f8be0079c531659141344cd1fd0a4f28419497f9722a3daafe3b4186f6b6457e09190a35050565b33600090815260096020526040812054610834908390610c7f565b600554604051636eb1769f60e11b815233600482015230602482015291925082916001600160a01b039091169063dd62ed3e9060440160206040518083038186803b15801561088257600080fd5b505afa158015610896573d6000803e3d6000fd5b505050506040513d601f19601f820116820180604052508101906108ba9190610bf9565b10156109015760405162461bcd60e51b815260206004820152601660248201527512515490cc8c0e881a5b9cdd5988185c1c1c9bdd985b60521b604482015260640161034e565b3360009081526008602052604081208054849290610920908490610c67565b90915550506005546040516323b872dd60e01b8152336004820152306024820152604481018390526001600160a01b03909116906323b872dd90606401602060405180830381600087803b15801561097757600080fd5b505af115801561098b573d6000803e3d6000fd5b505050506040513d601f19601f820116820180604052508101906102129190610b99565b80356001600160a01b03811681146109c657600080fd5b919050565b6000602082840312156109dd57600080fd5b6109e6826109af565b9392505050565b60008060408385031215610a0057600080fd5b610a09836109af565b9150610a17602084016109af565b90509250929050565b600080600060608486031215610a3557600080fd5b610a3e846109af565b9250610a4c602085016109af565b9150604084013590509250925092565b60008060008060808587031215610a7257600080fd5b610a7b856109af565b9350610a89602086016109af565b925060408501359150606085013567ffffffffffffffff80821115610aad57600080fd5b818701915087601f830112610ac157600080fd5b813581811115610ad357610ad3610d0a565b604051601f8201601f19908116603f01168101908382118183101715610afb57610afb610d0a565b816040528281528a6020848701011115610b1457600080fd5b82602086016020830137600060208483010152809550505050505092959194509250565b60008060408385031215610b4b57600080fd5b610b54836109af565b91506020830135610b6481610d20565b809150509250929050565b60008060408385031215610b8257600080fd5b610b8b836109af565b946020939093013593505050565b600060208284031215610bab57600080fd5b81516109e681610d20565b600060208284031215610bc857600080fd5b81356001600160e01b0319811681146109e657600080fd5b600060208284031215610bf257600080fd5b5035919050565b600060208284031215610c0b57600080fd5b5051919050565b600060208083528351808285015260005b81811015610c3f57858101830151858201604001528201610c23565b81811115610c51576000604083870101525b50601f01601f1916929092016040019392505050565b60008219821115610c7a57610c7a610cf4565b500190565b6000816000190483118215151615610c9957610c99610cf4565b500290565b600181811c90821680610cb257607f821691505b60208210811415610cd357634e487b7160e01b600052602260045260246000fd5b50919050565b6000600019821415610ced57610ced610cf4565b5060010190565b634e487b7160e01b600052601160045260246000fd5b634e487b7160e01b600052604160045260246000fd5b801515811461057057600080fdfea264697066735822122017615815691d859d87fd8d3c2dd4c74be657db8da1ce92e9f1e1c5b36f455fe464736f6c63430008060033",
  "immutableReferences": {},
  "source": "pragma solidity ^0.8.6;\n\n// SPDX-License-Identifier: MIT\n\nimport \"@openzeppelin/contracts/access/Ownable.sol\";\nimport \"@openzeppelin/contracts/token/ERC721/IERC721.sol\";\nimport \"@openzeppelin/contracts/token/ERC20/IERC20.sol\";\n\n/// @author DrGorilla.eth / Voyager Media Group\n/// @title Memories Subscription: individual creators\n/// @notice this is the generic NFT compatible subscription token.\n/// @dev accepted token is set by factory. totalySupply is, de facto, tthe current id minted,\n/// Sub prices are individual to allow special offer for limited timeframe\n\n// TODO : manage limited time offer reversibillity\n\n\ncontract Subscription is IERC721, Ownable {\n\n    uint256 totalSupply;\n    uint256 current_price; //in wei\n\n    address creator;\n\n    string private _symbol;\n\n    IERC20 payment_token;\n\n    mapping(uint256 => address) private _owners;\n    mapping(address => uint256) private _owned;\n    mapping(address => uint256) public expirations; //id->timestamp\n    mapping(address => uint256) public subscription_price;\n\n    modifier onlyAdmin {\n        require(msg.sender == creator || msg.sender == owner(), \"Sub: unauthorized\");\n        _;\n    }\n\n    constructor(address _creator, string memory _id, address token_adr) {\n        _symbol = _id;\n        creator = _creator;\n        payment_token = IERC20(token_adr);\n    }\n\n    function balanceOf(address _owner) public view virtual override returns (uint256) {\n        require(_owner != address(0), \"ERC721: balance query for the zero address\");\n        if(_owned[_owner] != 0) return 1;\n        return 0;\n    }\n\n    function ownerOf(uint256 tokenId) public view virtual override returns (address) {\n        address _owner = _owners[tokenId];\n        require(_owner != address(0), \"ERC721: owner query for nonexistent token\");\n        return _owner;\n    }\n\n    function name() public view virtual returns (string memory) {\n        return \"VOYRME SUB\";\n    }\n\n    function symbol() public view virtual returns (string memory) {\n        return _symbol;\n    }\n\n/// @param length duration of subscription, in seconds\n    function newSub(uint256 length) external {\n        require(length != 0, \"Invalid sub duration\");\n        if(_owned[msg.sender] != 0) renewSub(_owned[msg.sender]);\n        else {\n            subscription_price[msg.sender] = current_price;\n            _owned[msg.sender] = totalSupply;\n            _owners[totalSupply] = msg.sender;\n            totalSupply++;\n            emit Transfer(address(this), msg.sender, totalSupply);\n            _processPayment(length);\n        }\n    }\n\n    function renewSub(uint256 length) public {\n        require(length != 0, \"Invalid sub duration\");\n        require(_owned[msg.sender] != 0, \"No sub owned\");\n        _processPayment(length);\n    }\n\n    function _processPayment(uint256 length) internal {\n        uint256 to_pay = subscription_price[msg.sender]  * length;\n        require(payment_token.allowance(msg.sender, address(this)) >= to_pay, \"IERC20: insuf approval\");\n        expirations[msg.sender] += length;\n        payment_token.transferFrom(msg.sender, address(this), to_pay);\n    }\n\n    function setCurrentPrice(uint256 _price) external onlyAdmin {\n        current_price = _price;\n    }\n\n\n/// @dev no use case:\n\n    function approve(address to, uint256 tokenId) public virtual override {}\n\n    function getApproved(uint256 tokenId) public view virtual override returns (address) {return address(0);}\n\n    function setApprovalForAll(address operator, bool approved) public virtual override {}\n\n    function isApprovedForAll(address owner, address operator) public view virtual override returns (bool) {return false;}\n\n    function transferFrom(address from,address to,uint256 tokenId) public virtual override {}\n\n    function safeTransferFrom(address from,address to,uint256 tokenId) public virtual override {}\n\n    function safeTransferFrom(address from,address to,uint256 tokenId,bytes memory _data) public virtual override {}\n\n    function supportsInterface(bytes4 interfaceId) external pure override returns (bool) {return false;}\n\n}\n",
  "sourcePath": "/Volumes/T7 Touch/solidity/voyr_repoS/subscription/contracts/Subscription.sol",
  "compiler": {
    "name": "solc",
    "version": "0.8.6+commit.11564f7e.Emscripten.clang"
  },
  "schemaVersion": "3.4.1",
  "updatedAt": "2021-09-14T11:12:40.622Z",
  "devdoc": {
    "author": "DrGorilla.eth / Voyager Media Group",
    "details": "accepted token is set by factory. totalySupply is, de facto, tthe current id minted, Sub prices are individual to allow special offer for limited timeframe",
    "kind": "dev",
    "methods": {
      "approve(address,uint256)": {
        "details": "no use case:"
      },
      "getApproved(uint256)": {
        "details": "Returns the account approved for `tokenId` token. Requirements: - `tokenId` must exist."
      },
      "isApprovedForAll(address,address)": {
        "details": "Returns if the `operator` is allowed to manage all of the assets of `owner`. See {setApprovalForAll}"
      },
      "newSub(uint256)": {
        "params": {
          "length": "duration of subscription, in seconds"
        }
      },
      "owner()": {
        "details": "Returns the address of the current owner."
      },
      "ownerOf(uint256)": {
        "details": "Returns the owner of the `tokenId` token. Requirements: - `tokenId` must exist."
      },
      "renounceOwnership()": {
        "details": "Leaves the contract without owner. It will not be possible to call `onlyOwner` functions anymore. Can only be called by the current owner. NOTE: Renouncing ownership will leave the contract without an owner, thereby removing any functionality that is only available to the owner."
      },
      "safeTransferFrom(address,address,uint256)": {
        "details": "Safely transfers `tokenId` token from `from` to `to`, checking first that contract recipients are aware of the ERC721 protocol to prevent tokens from being forever locked. Requirements: - `from` cannot be the zero address. - `to` cannot be the zero address. - `tokenId` token must exist and be owned by `from`. - If the caller is not `from`, it must be have been allowed to move this token by either {approve} or {setApprovalForAll}. - If `to` refers to a smart contract, it must implement {IERC721Receiver-onERC721Received}, which is called upon a safe transfer. Emits a {Transfer} event."
      },
      "supportsInterface(bytes4)": {
        "details": "Returns true if this contract implements the interface defined by `interfaceId`. See the corresponding https://eips.ethereum.org/EIPS/eip-165#how-interfaces-are-identified[EIP section] to learn more about how these ids are created. This function call must use less than 30 000 gas."
      },
      "transferFrom(address,address,uint256)": {
        "details": "Transfers `tokenId` token from `from` to `to`. WARNING: Usage of this method is discouraged, use {safeTransferFrom} whenever possible. Requirements: - `from` cannot be the zero address. - `to` cannot be the zero address. - `tokenId` token must be owned by `from`. - If the caller is not `from`, it must be approved to move this token by either {approve} or {setApprovalForAll}. Emits a {Transfer} event."
      },
      "transferOwnership(address)": {
        "details": "Transfers ownership of the contract to a new account (`newOwner`). Can only be called by the current owner."
      }
    },
    "title": "Memories Subscription: individual creators",
    "version": 1
  },
  "userdoc": {
    "kind": "user",
    "methods": {},
    "notice": "this is the generic NFT compatible subscription token.",
    "version": 1
  }
}