{
  "contractName": "VoyrSubFactory",
  "abi": [
    {
      "inputs": [],
      "stateMutability": "nonpayable",
      "type": "constructor"
    },
    {
      "anonymous": false,
      "inputs": [
        {
          "indexed": true,
          "internalType": "address",
          "name": "previousOwner",
          "type": "address"
        },
        {
          "indexed": true,
          "internalType": "address",
          "name": "newOwner",
          "type": "address"
        }
      ],
      "name": "OwnershipTransferred",
      "type": "event"
    },
    {
      "inputs": [
        {
          "internalType": "uint256",
          "name": "",
          "type": "uint256"
        }
      ],
      "name": "child_contracts",
      "outputs": [
        {
          "internalType": "contract VoyrSubscriptions",
          "name": "",
          "type": "address"
        }
      ],
      "stateMutability": "view",
      "type": "function",
      "constant": true
    },
    {
      "inputs": [
        {
          "internalType": "address",
          "name": "",
          "type": "address"
        }
      ],
      "name": "creatorIds",
      "outputs": [
        {
          "internalType": "uint256",
          "name": "",
          "type": "uint256"
        }
      ],
      "stateMutability": "view",
      "type": "function",
      "constant": true
    },
    {
      "inputs": [],
      "name": "owner",
      "outputs": [
        {
          "internalType": "address",
          "name": "",
          "type": "address"
        }
      ],
      "stateMutability": "view",
      "type": "function",
      "constant": true
    },
    {
      "inputs": [],
      "name": "renounceOwnership",
      "outputs": [],
      "stateMutability": "nonpayable",
      "type": "function"
    },
    {
      "inputs": [
        {
          "internalType": "address",
          "name": "newOwner",
          "type": "address"
        }
      ],
      "name": "transferOwnership",
      "outputs": [],
      "stateMutability": "nonpayable",
      "type": "function"
    },
    {
      "inputs": [
        {
          "internalType": "address",
          "name": "_creator",
          "type": "address"
        },
        {
          "internalType": "address",
          "name": "token_adr",
          "type": "address"
        }
      ],
      "name": "newCreator",
      "outputs": [],
      "stateMutability": "nonpayable",
      "type": "function"
    },
    {
      "inputs": [
        {
          "internalType": "uint256",
          "name": "creator_id",
          "type": "uint256"
        },
        {
          "internalType": "address",
          "name": "user",
          "type": "address"
        }
      ],
      "name": "burn",
      "outputs": [],
      "stateMutability": "nonpayable",
      "type": "function"
    },
    {
      "inputs": [
        {
          "internalType": "uint256",
          "name": "creator_id",
          "type": "uint256"
        },
        {
          "internalType": "address",
          "name": "receiver",
          "type": "address"
        },
        {
          "internalType": "uint256",
          "name": "length",
          "type": "uint256"
        }
      ],
      "name": "give",
      "outputs": [],
      "stateMutability": "nonpayable",
      "type": "function"
    },
    {
      "inputs": [
        {
          "internalType": "uint256",
          "name": "creator_id",
          "type": "uint256"
        },
        {
          "internalType": "uint256",
          "name": "price",
          "type": "uint256"
        },
        {
          "internalType": "uint256",
          "name": "duration",
          "type": "uint256"
        }
      ],
      "name": "addCreatorPlan",
      "outputs": [],
      "stateMutability": "nonpayable",
      "type": "function"
    },
    {
      "inputs": [
        {
          "internalType": "uint256",
          "name": "creator_id",
          "type": "uint256"
        },
        {
          "internalType": "uint256",
          "name": "price",
          "type": "uint256"
        },
        {
          "internalType": "uint256",
          "name": "duration",
          "type": "uint256"
        },
        {
          "internalType": "uint256",
          "name": "index",
          "type": "uint256"
        }
      ],
      "name": "modifyCreatorPlan",
      "outputs": [],
      "stateMutability": "nonpayable",
      "type": "function"
    },
    {
      "inputs": [
        {
          "internalType": "uint256",
          "name": "creator_id",
          "type": "uint256"
        },
        {
          "internalType": "uint256",
          "name": "index",
          "type": "uint256"
        }
      ],
      "name": "deleteCreatorPlan",
      "outputs": [],
      "stateMutability": "nonpayable",
      "type": "function"
    },
    {
      "inputs": [
        {
          "internalType": "uint256",
          "name": "creator_id",
          "type": "uint256"
        }
      ],
      "name": "suspendCreator",
      "outputs": [],
      "stateMutability": "nonpayable",
      "type": "function"
    },
    {
      "inputs": [
        {
          "internalType": "uint256",
          "name": "creator_id",
          "type": "uint256"
        }
      ],
      "name": "resumeCreator",
      "outputs": [],
      "stateMutability": "nonpayable",
      "type": "function"
    },
    {
      "inputs": [
        {
          "internalType": "uint256",
          "name": "creator_id",
          "type": "uint256"
        }
      ],
      "name": "deleteCreator",
      "outputs": [],
      "stateMutability": "nonpayable",
      "type": "function"
    }
  ],
  "bytecode": "0x60806040526001805534801561001457600080fd5b5061001e33610023565b610073565b600080546001600160a01b038381166001600160a01b0319831681178455604051919092169283917f8be0079c531659141344cd1fd0a4f28419497f9722a3daafe3b4186f6b6457e09190a35050565b61282e806100826000396000f3fe60806040523480156200001157600080fd5b5060043610620000fd5760003560e01c80639b44a3f11162000097578063f46ed226116200006e578063f46ed226146200020b578063f570ad051462000222578063f604a1461462000239578063fcd3533c146200026557600080fd5b80639b44a3f114620001c6578063a9cc6ad214620001dd578063f2fde38b14620001f457600080fd5b80634259418911620000d8578063425941891462000168578063715018a6146200017f578063888b998e14620001895780638da5cb5b14620001a057600080fd5b80630261ab6914620001025780630fe699a71462000138578063181e7a9a1462000151575b600080fd5b620001256200011336600462000b68565b60026020526000908152604090205481565b6040519081526020015b60405180910390f35b6200014f6200014936600462000c8d565b6200027c565b005b6200014f6200016236600462000baf565b6200032c565b6200014f6200017936600462000bed565b62000454565b6200014f620005aa565b6200014f6200019a36600462000cba565b620005e5565b6000546001600160a01b03165b6040516001600160a01b0390911681526020016200012f565b6200014f620001d736600462000c2f565b62000693565b6200014f620001ee36600462000c6a565b62000707565b6200014f6200020536600462000b68565b620007a6565b6200014f6200021c36600462000bed565b62000848565b6200014f6200023336600462000bed565b620008de565b620001ad6200024a36600462000bed565b6003602052600090815260409020546001600160a01b031681565b6200014f6200027636600462000c07565b62000958565b6000546001600160a01b03163314620002b25760405162461bcd60e51b8152600401620002a99062000d66565b60405180910390fd5b600083815260036020526040908190205490516323c9dd5b60e21b815260048101849052602481018390526001600160a01b0390911690638f27756c906044015b600060405180830381600087803b1580156200030e57600080fd5b505af115801562000323573d6000803e3d6000fd5b50505050505050565b6001600160a01b03821660009081526002602052604090205415620003865760405162461bcd60e51b815260206004820152600f60248201526e30b63932b0b23c9031b932b0ba37b960891b6044820152606401620002a9565b600062000395600154620009c5565b604051602001620003a7919062000ced565b60405160208183030381529060405290506000838284604051620003cb9062000b5a565b620003d99392919062000d1a565b604051809103906000f080158015620003f6573d6000803e3d6000fd5b5060018054600090815260036020908152604080832080546001600160a01b0319166001600160a01b03878116919091179091558454908a16845260029092528220819055929350620004498362000e55565b919050555050505050565b6000546001600160a01b03163314620004815760405162461bcd60e51b8152600401620002a99062000d66565b600081815260036020526040808220548151638456cb5960e01b815291516001600160a01b0390911692638456cb59926004808201939182900301818387803b158015620004ce57600080fd5b505af1158015620004e3573d6000803e3d6000fd5b505050600082815260036020908152604080832054815162ee2cb160e41b815291519394506001600160a01b031692630ee2cb1092600480840193919291829003018186803b1580156200053657600080fd5b505afa1580156200054b573d6000803e3d6000fd5b505050506040513d601f19601f8201168201806040525081019062000571919062000b8f565b600092835260036020908152604080852080546001600160a01b03191690556001600160a01b0390921684526002905282209190915550565b6000546001600160a01b03163314620005d75760405162461bcd60e51b8152600401620002a99062000d66565b620005e3600062000b0a565b565b6000546001600160a01b03163314620006125760405162461bcd60e51b8152600401620002a99062000d66565b60008481526003602052604090819020549051639f765c0b60e01b81526004810185905260248101849052604481018390526001600160a01b0390911690639f765c0b90606401600060405180830381600087803b1580156200067457600080fd5b505af115801562000689573d6000803e3d6000fd5b5050505050505050565b6000546001600160a01b03163314620006c05760405162461bcd60e51b8152600401620002a99062000d66565b600083815260036020526040908190205490516340507a9560e11b81526001600160a01b03848116600483015260248201849052909116906380a0f52a90604401620002f3565b6000546001600160a01b03163314620007345760405162461bcd60e51b8152600401620002a99062000d66565b6000828152600360205260409081902054905163492d036360e11b8152600481018390526001600160a01b039091169063925a06c6906024015b600060405180830381600087803b1580156200078957600080fd5b505af11580156200079e573d6000803e3d6000fd5b505050505050565b6000546001600160a01b03163314620007d35760405162461bcd60e51b8152600401620002a99062000d66565b6001600160a01b0381166200083a5760405162461bcd60e51b815260206004820152602660248201527f4f776e61626c653a206e6577206f776e657220697320746865207a65726f206160448201526564647265737360d01b6064820152608401620002a9565b620008458162000b0a565b50565b6000546001600160a01b03163314620008755760405162461bcd60e51b8152600401620002a99062000d66565b600081815260036020526040808220548151638456cb5960e01b815291516001600160a01b0390911692638456cb59926004808201939182900301818387803b158015620008c257600080fd5b505af1158015620008d7573d6000803e3d6000fd5b5050505050565b6000546001600160a01b031633146200090b5760405162461bcd60e51b8152600401620002a99062000d66565b600081815260036020526040808220548151630237bed160e11b815291516001600160a01b039091169263046f7da2926004808201939182900301818387803b158015620008c257600080fd5b6000546001600160a01b03163314620009855760405162461bcd60e51b8152600401620002a99062000d66565b6000828152600360205260409081902054905163226bf2d160e21b81526001600160a01b038381166004830152909116906389afcb44906024016200076e565b606081620009ea5750506040805180820190915260018152600360fc1b602082015290565b8160005b811562000a1a578062000a018162000e55565b915062000a129050600a8362000dc3565b9150620009ee565b60008167ffffffffffffffff81111562000a385762000a3862000e9f565b6040519080825280601f01601f19166020018201604052801562000a63576020820181803683370190505b509050815b851562000b015762000a7c60018262000e08565b9050600062000a8d600a8862000dc3565b62000a9a90600a62000de6565b62000aa6908862000e08565b62000ab390603062000d9b565b905060008160f81b90508084848151811062000ad35762000ad362000e89565b60200101906001600160f81b031916908160001a90535062000af7600a8962000dc3565b9750505062000a68565b50949350505050565b600080546001600160a01b038381166001600160a01b0319831681178455604051919092169283917f8be0079c531659141344cd1fd0a4f28419497f9722a3daafe3b4186f6b6457e09190a35050565b61192d8062000ecc83390190565b60006020828403121562000b7b57600080fd5b813562000b888162000eb5565b9392505050565b60006020828403121562000ba257600080fd5b815162000b888162000eb5565b6000806040838503121562000bc357600080fd5b823562000bd08162000eb5565b9150602083013562000be28162000eb5565b809150509250929050565b60006020828403121562000c0057600080fd5b5035919050565b6000806040838503121562000c1b57600080fd5b82359150602083013562000be28162000eb5565b60008060006060848603121562000c4557600080fd5b83359250602084013562000c598162000eb5565b929592945050506040919091013590565b6000806040838503121562000c7e57600080fd5b50508035926020909101359150565b60008060006060848603121562000ca357600080fd5b505081359360208301359350604090920135919050565b6000806000806080858703121562000cd157600080fd5b5050823594602084013594506040840135936060013592509050565b62034b2160ed1b81526000825162000d0d81600385016020870162000e22565b9190910160030192915050565b600060018060a01b03808616835260606020840152845180606085015262000d4a81608086016020890162000e22565b9316604083015250601f91909101601f19160160800192915050565b6020808252818101527f4f776e61626c653a2063616c6c6572206973206e6f7420746865206f776e6572604082015260600190565b600060ff821660ff84168060ff0382111562000dbb5762000dbb62000e73565b019392505050565b60008262000de157634e487b7160e01b600052601260045260246000fd5b500490565b600081600019048311821515161562000e035762000e0362000e73565b500290565b60008282101562000e1d5762000e1d62000e73565b500390565b60005b8381101562000e3f57818101518382015260200162000e25565b8381111562000e4f576000848401525b50505050565b600060001982141562000e6c5762000e6c62000e73565b5060010190565b634e487b7160e01b600052601160045260246000fd5b634e487b7160e01b600052603260045260246000fd5b634e487b7160e01b600052604160045260246000fd5b6001600160a01b03811681146200084557600080fdfe60806040523480156200001157600080fd5b506040516200192d3803806200192d8339810160408190526200003491620001aa565b6200003f3362000097565b815162000054906004906020850190620000e7565b5060038054610100600160a81b0319166101006001600160a01b0395861602179055600580546001600160a01b0319169190931617909155506001805562000302565b600080546001600160a01b038381166001600160a01b0319831681178455604051919092169283917f8be0079c531659141344cd1fd0a4f28419497f9722a3daafe3b4186f6b6457e09190a35050565b828054620000f590620002af565b90600052602060002090601f01602090048101928262000119576000855562000164565b82601f106200013457805160ff191683800117855562000164565b8280016001018555821562000164579182015b828111156200016457825182559160200191906001019062000147565b506200017292915062000176565b5090565b5b8082111562000172576000815560010162000177565b80516001600160a01b0381168114620001a557600080fd5b919050565b600080600060608486031215620001c057600080fd5b620001cb846200018d565b602085810151919450906001600160401b0380821115620001eb57600080fd5b818701915087601f8301126200020057600080fd5b815181811115620002155762000215620002ec565b604051601f8201601f19908116603f01168101908382118183101715620002405762000240620002ec565b816040528281528a868487010111156200025957600080fd5b600093505b828410156200027d57848401860151818501870152928501926200025e565b828411156200028f5760008684830101525b809750505050505050620002a6604085016200018d565b90509250925092565b600181811c90821680620002c457607f821691505b60208210811415620002e657634e487b7160e01b600052602260045260246000fd5b50919050565b634e487b7160e01b600052604160045260246000fd5b61161b80620003126000396000f3fe608060405234801561001057600080fd5b50600436106101da5760003560e01c8063715018a611610104578063925a06c6116100a2578063b162061611610071578063b1620616146103e4578063b88d4fde1461040c578063e985e9c514610420578063f2fde38b1461043657600080fd5b8063925a06c6146103a857806395d89b41146103bb5780639f765c0b146103c3578063a22cb465146103d657600080fd5b80638456cb59116100de5780638456cb591461036957806389afcb44146103715780638da5cb5b146103845780638f27756c1461039557600080fd5b8063715018a61461033b57806380a0f52a14610343578063816e7ba81461035657600080fd5b806323b872dd1161017c5780634c9b27fb1161014b5780634c9b27fb146102ea5780636352211e146103025780636a326ab11461031557806370a082311461032857600080fd5b806323b872dd146102a457806326ae6d1e146102b75780633c74db0f146102ca57806342842e0e146102a457600080fd5b8063081812fc116101b8578063081812fc1461023f578063095ea7b3146102655780630ee2cb101461027757806318160ddd1461028d57600080fd5b806301ffc9a7146101df578063046f7da21461020857806306fdde0314610212575b600080fd5b6101f36101ed36600461137c565b50600090565b60405190151581526020015b60405180910390f35b610210610449565b005b6040805180820190915260088152672b27aca91029aaa160c11b60208201525b6040516101ff9190611426565b61024d6101ed3660046113a6565b6040516001600160a01b0390911681526020016101ff565b610210610273366004611335565b5050565b60035461010090046001600160a01b031661024d565b61029660015481565b6040519081526020016101ff565b6102106102b23660046111e6565b505050565b6102106102c53660046113d8565b610488565b6102966102d8366004611191565b60086020526000908152604090205481565b336000908152600860205260409020544211156101f3565b61024d6103103660046113a6565b61056c565b610210610323366004611191565b6105e6565b610296610336366004611191565b610705565b61021061079b565b610210610351366004611335565b6107d1565b6102106103643660046113d8565b61090a565b6102106109ad565b61021061037f366004611191565b6109e6565b6000546001600160a01b031661024d565b6102106103a33660046113d8565b610aeb565b6102106103b63660046113a6565b610ba6565b610232610cc8565b6102106103d13660046113fa565b610d5a565b6102106102733660046112fe565b6103f76103f23660046113a6565b610df1565b604080519283526020830191909152016101ff565b61021061041a366004611222565b50505050565b6101f361042e3660046111b3565b600092915050565b610210610444366004611191565b610e1f565b6000546001600160a01b0316331461047c5760405162461bcd60e51b8152600401610473906114a6565b60405180910390fd5b6003805460ff19169055565b816104d15760405162461bcd60e51b815260206004820152601960248201527829bab11d1024b73b30b634b21039bab110323ab930ba34b7b760391b6044820152606401610473565b33600090815260076020526040902054156104f057610273828261090a565b600154336000818152600760209081526040808320859055848352600690915280822080546001600160a01b031916841790555183929130917fddf252ad1be2c89b69c2b068fc378daa952ba7f163c4a11628f55a4df523b3ef9190a46001805490600061055d83611564565b91905055506102b28383610eb7565b6000818152600660205260408120546001600160a01b0316806105e05760405162461bcd60e51b815260206004820152602660248201527f5375623a206f776e657220717565727920666f72206e6f6e6578697374656e74604482015265103a37b5b2b760d11b6064820152608401610473565b92915050565b60035461010090046001600160a01b031633148061060e57506000546001600160a01b031633145b61062a5760405162461bcd60e51b81526004016104739061147b565b600580546001600160a01b0319166001600160a01b038316908117909155604080516318160ddd60e01b815290516318160ddd91600480820192602092909190829003018186803b15801561067e57600080fd5b505afa158015610692573d6000803e3d6000fd5b505050506040513d601f19601f820116820180604052508101906106b691906113bf565b6107025760405162461bcd60e51b815260206004820152601a60248201527f536574207061796d656e743a20496e76616c69642045524332300000000000006044820152606401610473565b50565b60006001600160a01b03821661076d5760405162461bcd60e51b815260206004820152602760248201527f5375623a2062616c616e636520717565727920666f7220746865207a65726f206044820152666164647265737360c81b6064820152608401610473565b6001600160a01b0382166000908152600760205260409020541561079357506001919050565b506000919050565b6000546001600160a01b031633146107c55760405162461bcd60e51b8152600401610473906114a6565b6107cf6000611125565b565b6000546001600160a01b031633146107fb5760405162461bcd60e51b8152600401610473906114a6565b6001600160a01b03821660009081526007602052604090205461089757600180546001600160a01b03841660008181526007602090815260408083208590559382526006905282812080546001600160a01b03191683179055925491519192909130917fddf252ad1be2c89b69c2b068fc378daa952ba7f163c4a11628f55a4df523b3ef91a46001805490600061089183611564565b91905055505b6001600160a01b0382166000908152600860205260409020544211156108c6576108c181426114db565b6108ea565b6001600160a01b0382166000908152600860205260409020546108ea9082906114db565b6001600160a01b0390921660009081526008602052604090209190915550565b816109535760405162461bcd60e51b815260206004820152601960248201527829bab11d1024b73b30b634b21039bab110323ab930ba34b7b760391b6044820152606401610473565b336000908152600760205260409020546109a35760405162461bcd60e51b815260206004820152601160248201527014dd588e88139bc81cdd58881bdddb9959607a1b6044820152606401610473565b6102738282610eb7565b6000546001600160a01b031633146109d75760405162461bcd60e51b8152600401610473906114a6565b6003805460ff19166001179055565b6000546001600160a01b03163314610a105760405162461bcd60e51b8152600401610473906114a6565b6001600160a01b038116600090815260076020526040902054610a755760405162461bcd60e51b815260206004820152601860248201527f537562206275726e3a206e6f20746f6b656e206f776e656400000000000000006044820152606401610473565b6001600160a01b03811660008181526007602090815260408083208054908490558084526006835281842080546001600160a01b031916905584845260089092528083208390555190928392917fddf252ad1be2c89b69c2b068fc378daa952ba7f163c4a11628f55a4df523b3ef908390a45050565b60035461010090046001600160a01b0316331480610b1357506000546001600160a01b031633145b610b2f5760405162461bcd60e51b81526004016104739061147b565b604080518082019091529081526020810191825260028054600181018255600082905291517f405787fa12a823e0f2b7631cc41b3ba8828b3321ca811111fa75cd3aa3bb5ace929091029182015590517f405787fa12a823e0f2b7631cc41b3ba8828b3321ca811111fa75cd3aa3bb5acf90910155565b60035461010090046001600160a01b0316331480610bce57506000546001600160a01b031633145b610bea5760405162461bcd60e51b81526004016104739061147b565b6002548110610c305760405162461bcd60e51b81526020600482015260126024820152710a6eac47440d2dcecc2d8d2c840d2dcc8caf60731b6044820152606401610473565b60028054610c4090600190611512565b81548110610c5057610c506115ab565b906000526020600020906002020160028281548110610c7157610c716115ab565b906000526020600020906002020160008201548160000155600182015481600101559050506002805480610ca757610ca7611595565b60008281526020812060026000199093019283020181815560010155905550565b606060048054610cd790611529565b80601f0160208091040260200160405190810160405280929190818152602001828054610d0390611529565b8015610d505780601f10610d2557610100808354040283529160200191610d50565b820191906000526020600020905b815481529060010190602001808311610d3357829003601f168201915b5050505050905090565b60035461010090046001600160a01b0316331480610d8257506000546001600160a01b031633145b610d9e5760405162461bcd60e51b81526004016104739061147b565b8260028281548110610db257610db26115ab565b9060005260206000209060020201600101819055508160028281548110610ddb57610ddb6115ab565b6000918252602090912060029091020155505050565b60028181548110610e0157600080fd5b60009182526020909120600290910201805460019091015490915082565b6000546001600160a01b03163314610e495760405162461bcd60e51b8152600401610473906114a6565b6001600160a01b038116610eae5760405162461bcd60e51b815260206004820152602660248201527f4f776e61626c653a206e6577206f776e657220697320746865207a65726f206160448201526564647265737360d01b6064820152608401610473565b61070281611125565b60035460ff1615610efb5760405162461bcd60e51b815260206004820152600e60248201526d10dc99585d1bdc881c185d5cd95960921b6044820152606401610473565b600060028281548110610f1057610f106115ab565b9060005260206000209060020201600101549050600060028381548110610f3957610f396115ab565b600091825260208220600290910201549150610f5585846114f3565b90506000610f6386846114f3565b600554604051636eb1769f60e11b815233600482015230602482015291925083916001600160a01b039091169063dd62ed3e9060440160206040518083038186803b158015610fb157600080fd5b505afa158015610fc5573d6000803e3d6000fd5b505050506040513d601f19601f82011682018060405250810190610fe991906113bf565b10156110305760405162461bcd60e51b815260206004820152601660248201527512515490cc8c0e881a5b9cdd5988185c1c1c9bdd985b60521b6044820152606401610473565b336000908152600860205260409020544211156110565761105181426114db565b611071565b336000908152600860205260409020546110719082906114db565b33600081815260086020526040908190209290925560055460035492516323b872dd60e01b815260048101929092526101009092046001600160a01b03908116602483015260448201859052909116906323b872dd90606401602060405180830381600087803b1580156110e457600080fd5b505af11580156110f8573d6000803e3d6000fd5b505050506040513d601f19601f8201168201806040525081019061111c919061135f565b50505050505050565b600080546001600160a01b038381166001600160a01b0319831681178455604051919092169283917f8be0079c531659141344cd1fd0a4f28419497f9722a3daafe3b4186f6b6457e09190a35050565b80356001600160a01b038116811461118c57600080fd5b919050565b6000602082840312156111a357600080fd5b6111ac82611175565b9392505050565b600080604083850312156111c657600080fd5b6111cf83611175565b91506111dd60208401611175565b90509250929050565b6000806000606084860312156111fb57600080fd5b61120484611175565b925061121260208501611175565b9150604084013590509250925092565b6000806000806080858703121561123857600080fd5b61124185611175565b935061124f60208601611175565b925060408501359150606085013567ffffffffffffffff8082111561127357600080fd5b818701915087601f83011261128757600080fd5b813581811115611299576112996115c1565b604051601f8201601f19908116603f011681019083821181831017156112c1576112c16115c1565b816040528281528a60208487010111156112da57600080fd5b82602086016020830137600060208483010152809550505050505092959194509250565b6000806040838503121561131157600080fd5b61131a83611175565b9150602083013561132a816115d7565b809150509250929050565b6000806040838503121561134857600080fd5b61135183611175565b946020939093013593505050565b60006020828403121561137157600080fd5b81516111ac816115d7565b60006020828403121561138e57600080fd5b81356001600160e01b0319811681146111ac57600080fd5b6000602082840312156113b857600080fd5b5035919050565b6000602082840312156113d157600080fd5b5051919050565b600080604083850312156113eb57600080fd5b50508035926020909101359150565b60008060006060848603121561140f57600080fd5b505081359360208301359350604090920135919050565b600060208083528351808285015260005b8181101561145357858101830151858201604001528201611437565b81811115611465576000604083870101525b50601f01601f1916929092016040019392505050565b60208082526011908201527014dd588e881d5b985d5d1a1bdc9a5e9959607a1b604082015260600190565b6020808252818101527f4f776e61626c653a2063616c6c6572206973206e6f7420746865206f776e6572604082015260600190565b600082198211156114ee576114ee61157f565b500190565b600081600019048311821515161561150d5761150d61157f565b500290565b6000828210156115245761152461157f565b500390565b600181811c9082168061153d57607f821691505b6020821081141561155e57634e487b7160e01b600052602260045260246000fd5b50919050565b60006000198214156115785761157861157f565b5060010190565b634e487b7160e01b600052601160045260246000fd5b634e487b7160e01b600052603160045260246000fd5b634e487b7160e01b600052603260045260246000fd5b634e487b7160e01b600052604160045260246000fd5b801515811461070257600080fdfea2646970667358221220045907546f679fb027433f33ce8907526c9bdc361f45391599176e2452a92aa264736f6c63430008060033a26469706673582212204e268bb39b0ef7d6ad467b380ec5936963c51429fee7bd685d8ea0e08667916164736f6c63430008060033",
  "immutableReferences": {},
  "source": "pragma solidity ^0.8.6;\r\n// SPDX-License-Identifier: GPL\r\n\r\n\r\nimport \"@openzeppelin/contracts/access/Ownable.sol\";\r\nimport \"./VoyrSubscriptions.sol\";\r\n\r\n/// @author DrGorilla.eth / Voyager Media Group\r\n/// @title Memories Factory\r\n/// @notice this is the factory and controller for subscription contracts.\r\n/// Each contract created by this factory is init with the name 'VOYR SUB' \r\n/// and the symbol 'id XX' (where XX is the creator id)\r\n\r\ncontract VoyrSubFactory is Ownable {\r\n\r\n    uint256 current_id = 1;\r\n\r\n    mapping(address => uint256) public creatorIds; //when called, will return 0 if not a creator\r\n    mapping(uint256 => VoyrSubscriptions) public child_contracts; //id -> sub contract\r\n\r\n    constructor () {}\r\n\r\n    function newCreator(address _creator, address token_adr) external {\r\n        require(creatorIds[_creator] == 0, \"already creator\");\r\n        string memory current_id_str = string(abi.encodePacked(\"id \", uint2str(current_id)));\r\n        VoyrSubscriptions _adr = new VoyrSubscriptions(_creator, current_id_str, token_adr);\r\n        child_contracts[current_id] = _adr;\r\n        creatorIds[_creator] = current_id;\r\n        current_id++;\r\n    }\r\n\r\n    /// @dev send the sub to creator_id from user to the burn address + cancel any ongoing sub\r\n    function burn(uint256 creator_id, address user) external onlyOwner {\r\n        child_contracts[creator_id].burn(user);\r\n    }\r\n\r\n    /// @dev create a new sub and mint if needed\r\n    function give(uint256 creator_id, address receiver, uint256 length) external onlyOwner {\r\n        child_contracts[creator_id].sendSubscription(receiver, length);\r\n    }\r\n\r\n    function addCreatorPlan(uint256 creator_id, uint256 price, uint256 duration) external onlyOwner {\r\n        child_contracts[creator_id].addNewPlan(price, duration);\r\n    }\r\n\r\n    function modifyCreatorPlan(uint256 creator_id, uint256 price, uint256 duration, uint256 index) external onlyOwner {\r\n        child_contracts[creator_id].modifyPlan(price, duration, index);\r\n    }\r\n\r\n    function deleteCreatorPlan(uint256 creator_id, uint256 index) external onlyOwner {\r\n        child_contracts[creator_id].deletePlan(index);\r\n    }\r\n\r\n    function suspendCreator(uint256 creator_id) external onlyOwner {\r\n        child_contracts[creator_id].pause();\r\n    }\r\n\r\n    function resumeCreator(uint256 creator_id) external onlyOwner {\r\n        child_contracts[creator_id].resume();\r\n    }\r\n\r\n    function deleteCreator(uint256 creator_id) external onlyOwner {\r\n        child_contracts[creator_id].pause();\r\n        address _creator = child_contracts[creator_id].getCreator();\r\n        delete child_contracts[creator_id];\r\n        delete creatorIds[_creator];\r\n    }\r\n\r\n    function uint2str(uint _i) internal pure returns (string memory _uintAsString) {\r\n        if (_i == 0) {\r\n            return \"0\";\r\n        }\r\n        uint j = _i;\r\n        uint len;\r\n        while (j != 0) {\r\n            len++;\r\n            j /= 10;\r\n        }\r\n        bytes memory bstr = new bytes(len);\r\n        uint k = len;\r\n        while (_i != 0) {\r\n            k = k-1;\r\n            uint8 temp = (48 + uint8(_i - _i / 10 * 10));\r\n            bytes1 b1 = bytes1(temp);\r\n            bstr[k] = b1;\r\n            _i /= 10;\r\n        }\r\n        return string(bstr);\r\n    }\r\n\r\n\r\n}",
  "sourcePath": "/Volumes/ssd/solidity/voyr_repoS/subscription/contracts/VoyrSubFactory.sol",
  "compiler": {
    "name": "solc",
    "version": "0.8.6+commit.11564f7e.Emscripten.clang"
  },
  "schemaVersion": "3.4.1",
  "updatedAt": "2021-10-08T12:37:51.129Z",
  "networkType": "ethereum",
  "devdoc": {
    "author": "DrGorilla.eth / Voyager Media Group",
    "kind": "dev",
    "methods": {
      "burn(uint256,address)": {
        "details": "send the sub to creator_id from user to the burn address + cancel any ongoing sub"
      },
      "give(uint256,address,uint256)": {
        "details": "create a new sub and mint if needed"
      },
      "owner()": {
        "details": "Returns the address of the current owner."
      },
      "renounceOwnership()": {
        "details": "Leaves the contract without owner. It will not be possible to call `onlyOwner` functions anymore. Can only be called by the current owner. NOTE: Renouncing ownership will leave the contract without an owner, thereby removing any functionality that is only available to the owner."
      },
      "transferOwnership(address)": {
        "details": "Transfers ownership of the contract to a new account (`newOwner`). Can only be called by the current owner."
      }
    },
    "title": "Memories Factory",
    "version": 1
  },
  "userdoc": {
    "kind": "user",
    "methods": {},
    "notice": "this is the factory and controller for subscription contracts. Each contract created by this factory is init with the name 'VOYR SUB'  and the symbol 'id XX' (where XX is the creator id)",
    "version": 1
  }
}