{
  "contractName": "VoyrSubscriptions",
  "abi": [
    {
      "inputs": [
        {
          "internalType": "address",
          "name": "_creator",
          "type": "address"
        },
        {
          "internalType": "string",
          "name": "_id",
          "type": "string"
        },
        {
          "internalType": "address",
          "name": "token_adr",
          "type": "address"
        }
      ],
      "stateMutability": "nonpayable",
      "type": "constructor"
    },
    {
      "anonymous": false,
      "inputs": [
        {
          "indexed": true,
          "internalType": "address",
          "name": "owner",
          "type": "address"
        },
        {
          "indexed": true,
          "internalType": "address",
          "name": "approved",
          "type": "address"
        },
        {
          "indexed": true,
          "internalType": "uint256",
          "name": "tokenId",
          "type": "uint256"
        }
      ],
      "name": "Approval",
      "type": "event"
    },
    {
      "anonymous": false,
      "inputs": [
        {
          "indexed": true,
          "internalType": "address",
          "name": "owner",
          "type": "address"
        },
        {
          "indexed": true,
          "internalType": "address",
          "name": "operator",
          "type": "address"
        },
        {
          "indexed": false,
          "internalType": "bool",
          "name": "approved",
          "type": "bool"
        }
      ],
      "name": "ApprovalForAll",
      "type": "event"
    },
    {
      "anonymous": false,
      "inputs": [
        {
          "indexed": true,
          "internalType": "address",
          "name": "previousOwner",
          "type": "address"
        },
        {
          "indexed": true,
          "internalType": "address",
          "name": "newOwner",
          "type": "address"
        }
      ],
      "name": "OwnershipTransferred",
      "type": "event"
    },
    {
      "anonymous": false,
      "inputs": [
        {
          "indexed": true,
          "internalType": "address",
          "name": "from",
          "type": "address"
        },
        {
          "indexed": true,
          "internalType": "address",
          "name": "to",
          "type": "address"
        },
        {
          "indexed": true,
          "internalType": "uint256",
          "name": "tokenId",
          "type": "uint256"
        }
      ],
      "name": "Transfer",
      "type": "event"
    },
    {
      "inputs": [
        {
          "internalType": "address",
          "name": "",
          "type": "address"
        }
      ],
      "name": "expirations",
      "outputs": [
        {
          "internalType": "uint256",
          "name": "",
          "type": "uint256"
        }
      ],
      "stateMutability": "view",
      "type": "function"
    },
    {
      "inputs": [],
      "name": "owner",
      "outputs": [
        {
          "internalType": "address",
          "name": "",
          "type": "address"
        }
      ],
      "stateMutability": "view",
      "type": "function"
    },
    {
      "inputs": [
        {
          "internalType": "uint256",
          "name": "",
          "type": "uint256"
        }
      ],
      "name": "plans",
      "outputs": [
        {
          "internalType": "uint256",
          "name": "subscription_length",
          "type": "uint256"
        },
        {
          "internalType": "uint256",
          "name": "price",
          "type": "uint256"
        }
      ],
      "stateMutability": "view",
      "type": "function"
    },
    {
      "inputs": [],
      "name": "renounceOwnership",
      "outputs": [],
      "stateMutability": "nonpayable",
      "type": "function"
    },
    {
      "inputs": [],
      "name": "totalSupply",
      "outputs": [
        {
          "internalType": "uint256",
          "name": "",
          "type": "uint256"
        }
      ],
      "stateMutability": "view",
      "type": "function"
    },
    {
      "inputs": [
        {
          "internalType": "address",
          "name": "newOwner",
          "type": "address"
        }
      ],
      "name": "transferOwnership",
      "outputs": [],
      "stateMutability": "nonpayable",
      "type": "function"
    },
    {
      "inputs": [
        {
          "internalType": "address",
          "name": "_owner",
          "type": "address"
        }
      ],
      "name": "balanceOf",
      "outputs": [
        {
          "internalType": "uint256",
          "name": "",
          "type": "uint256"
        }
      ],
      "stateMutability": "view",
      "type": "function"
    },
    {
      "inputs": [
        {
          "internalType": "uint256",
          "name": "tokenId",
          "type": "uint256"
        }
      ],
      "name": "ownerOf",
      "outputs": [
        {
          "internalType": "address",
          "name": "",
          "type": "address"
        }
      ],
      "stateMutability": "view",
      "type": "function"
    },
    {
      "inputs": [],
      "name": "name",
      "outputs": [
        {
          "internalType": "string",
          "name": "",
          "type": "string"
        }
      ],
      "stateMutability": "view",
      "type": "function"
    },
    {
      "inputs": [],
      "name": "symbol",
      "outputs": [
        {
          "internalType": "string",
          "name": "",
          "type": "string"
        }
      ],
      "stateMutability": "view",
      "type": "function"
    },
    {
      "inputs": [
        {
          "internalType": "uint256",
          "name": "number_of_periods",
          "type": "uint256"
        },
        {
          "internalType": "uint256",
          "name": "plan",
          "type": "uint256"
        }
      ],
      "name": "newSub",
      "outputs": [],
      "stateMutability": "nonpayable",
      "type": "function"
    },
    {
      "inputs": [
        {
          "internalType": "uint256",
          "name": "number_of_periods",
          "type": "uint256"
        },
        {
          "internalType": "uint256",
          "name": "plan",
          "type": "uint256"
        }
      ],
      "name": "renewSub",
      "outputs": [],
      "stateMutability": "nonpayable",
      "type": "function"
    },
    {
      "inputs": [
        {
          "internalType": "uint256",
          "name": "price",
          "type": "uint256"
        },
        {
          "internalType": "uint256",
          "name": "duration",
          "type": "uint256"
        }
      ],
      "name": "addNewPlan",
      "outputs": [],
      "stateMutability": "nonpayable",
      "type": "function"
    },
    {
      "inputs": [
        {
          "internalType": "uint256",
          "name": "price",
          "type": "uint256"
        },
        {
          "internalType": "uint256",
          "name": "duration",
          "type": "uint256"
        },
        {
          "internalType": "uint256",
          "name": "index",
          "type": "uint256"
        }
      ],
      "name": "modifyPlan",
      "outputs": [],
      "stateMutability": "nonpayable",
      "type": "function"
    },
    {
      "inputs": [
        {
          "internalType": "uint256",
          "name": "index",
          "type": "uint256"
        }
      ],
      "name": "deletePlan",
      "outputs": [],
      "stateMutability": "nonpayable",
      "type": "function"
    },
    {
      "inputs": [],
      "name": "pause",
      "outputs": [],
      "stateMutability": "nonpayable",
      "type": "function"
    },
    {
      "inputs": [],
      "name": "resume",
      "outputs": [],
      "stateMutability": "nonpayable",
      "type": "function"
    },
    {
      "inputs": [
        {
          "internalType": "address",
          "name": "_adr",
          "type": "address"
        }
      ],
      "name": "burn",
      "outputs": [],
      "stateMutability": "nonpayable",
      "type": "function"
    },
    {
      "inputs": [
        {
          "internalType": "address",
          "name": "_adr",
          "type": "address"
        },
        {
          "internalType": "uint256",
          "name": "length",
          "type": "uint256"
        }
      ],
      "name": "sendSubscription",
      "outputs": [],
      "stateMutability": "nonpayable",
      "type": "function"
    },
    {
      "inputs": [
        {
          "internalType": "address",
          "name": "_token",
          "type": "address"
        }
      ],
      "name": "setPaymentToken",
      "outputs": [],
      "stateMutability": "nonpayable",
      "type": "function"
    },
    {
      "inputs": [],
      "name": "subscriptionActive",
      "outputs": [
        {
          "internalType": "bool",
          "name": "",
          "type": "bool"
        }
      ],
      "stateMutability": "view",
      "type": "function"
    },
    {
      "inputs": [],
      "name": "getCreator",
      "outputs": [
        {
          "internalType": "address",
          "name": "",
          "type": "address"
        }
      ],
      "stateMutability": "view",
      "type": "function"
    },
    {
      "inputs": [
        {
          "internalType": "address",
          "name": "to",
          "type": "address"
        },
        {
          "internalType": "uint256",
          "name": "tokenId",
          "type": "uint256"
        }
      ],
      "name": "approve",
      "outputs": [],
      "stateMutability": "nonpayable",
      "type": "function"
    },
    {
      "inputs": [
        {
          "internalType": "uint256",
          "name": "tokenId",
          "type": "uint256"
        }
      ],
      "name": "getApproved",
      "outputs": [
        {
          "internalType": "address",
          "name": "",
          "type": "address"
        }
      ],
      "stateMutability": "view",
      "type": "function"
    },
    {
      "inputs": [
        {
          "internalType": "address",
          "name": "operator",
          "type": "address"
        },
        {
          "internalType": "bool",
          "name": "approved",
          "type": "bool"
        }
      ],
      "name": "setApprovalForAll",
      "outputs": [],
      "stateMutability": "nonpayable",
      "type": "function"
    },
    {
      "inputs": [
        {
          "internalType": "address",
          "name": "owner",
          "type": "address"
        },
        {
          "internalType": "address",
          "name": "operator",
          "type": "address"
        }
      ],
      "name": "isApprovedForAll",
      "outputs": [
        {
          "internalType": "bool",
          "name": "",
          "type": "bool"
        }
      ],
      "stateMutability": "view",
      "type": "function"
    },
    {
      "inputs": [
        {
          "internalType": "address",
          "name": "from",
          "type": "address"
        },
        {
          "internalType": "address",
          "name": "to",
          "type": "address"
        },
        {
          "internalType": "uint256",
          "name": "tokenId",
          "type": "uint256"
        }
      ],
      "name": "transferFrom",
      "outputs": [],
      "stateMutability": "nonpayable",
      "type": "function"
    },
    {
      "inputs": [
        {
          "internalType": "address",
          "name": "from",
          "type": "address"
        },
        {
          "internalType": "address",
          "name": "to",
          "type": "address"
        },
        {
          "internalType": "uint256",
          "name": "tokenId",
          "type": "uint256"
        }
      ],
      "name": "safeTransferFrom",
      "outputs": [],
      "stateMutability": "nonpayable",
      "type": "function"
    },
    {
      "inputs": [
        {
          "internalType": "address",
          "name": "from",
          "type": "address"
        },
        {
          "internalType": "address",
          "name": "to",
          "type": "address"
        },
        {
          "internalType": "uint256",
          "name": "tokenId",
          "type": "uint256"
        },
        {
          "internalType": "bytes",
          "name": "_data",
          "type": "bytes"
        }
      ],
      "name": "safeTransferFrom",
      "outputs": [],
      "stateMutability": "nonpayable",
      "type": "function"
    },
    {
      "inputs": [
        {
          "internalType": "bytes4",
          "name": "interfaceId",
          "type": "bytes4"
        }
      ],
      "name": "supportsInterface",
      "outputs": [
        {
          "internalType": "bool",
          "name": "",
          "type": "bool"
        }
      ],
      "stateMutability": "pure",
      "type": "function"
    }
  ],
  "bytecode": "0x60806040523480156200001157600080fd5b506040516200192d3803806200192d8339810160408190526200003491620001aa565b6200003f3362000097565b815162000054906004906020850190620000e7565b5060038054610100600160a81b0319166101006001600160a01b0395861602179055600580546001600160a01b0319169190931617909155506001805562000302565b600080546001600160a01b038381166001600160a01b0319831681178455604051919092169283917f8be0079c531659141344cd1fd0a4f28419497f9722a3daafe3b4186f6b6457e09190a35050565b828054620000f590620002af565b90600052602060002090601f01602090048101928262000119576000855562000164565b82601f106200013457805160ff191683800117855562000164565b8280016001018555821562000164579182015b828111156200016457825182559160200191906001019062000147565b506200017292915062000176565b5090565b5b8082111562000172576000815560010162000177565b80516001600160a01b0381168114620001a557600080fd5b919050565b600080600060608486031215620001c057600080fd5b620001cb846200018d565b602085810151919450906001600160401b0380821115620001eb57600080fd5b818701915087601f8301126200020057600080fd5b815181811115620002155762000215620002ec565b604051601f8201601f19908116603f01168101908382118183101715620002405762000240620002ec565b816040528281528a868487010111156200025957600080fd5b600093505b828410156200027d57848401860151818501870152928501926200025e565b828411156200028f5760008684830101525b809750505050505050620002a6604085016200018d565b90509250925092565b600181811c90821680620002c457607f821691505b60208210811415620002e657634e487b7160e01b600052602260045260246000fd5b50919050565b634e487b7160e01b600052604160045260246000fd5b61161b80620003126000396000f3fe608060405234801561001057600080fd5b50600436106101da5760003560e01c8063715018a611610104578063925a06c6116100a2578063b162061611610071578063b1620616146103e4578063b88d4fde1461040c578063e985e9c514610420578063f2fde38b1461043657600080fd5b8063925a06c6146103a857806395d89b41146103bb5780639f765c0b146103c3578063a22cb465146103d657600080fd5b80638456cb59116100de5780638456cb591461036957806389afcb44146103715780638da5cb5b146103845780638f27756c1461039557600080fd5b8063715018a61461033b57806380a0f52a14610343578063816e7ba81461035657600080fd5b806323b872dd1161017c5780634c9b27fb1161014b5780634c9b27fb146102ea5780636352211e146103025780636a326ab11461031557806370a082311461032857600080fd5b806323b872dd146102a457806326ae6d1e146102b75780633c74db0f146102ca57806342842e0e146102a457600080fd5b8063081812fc116101b8578063081812fc1461023f578063095ea7b3146102655780630ee2cb101461027757806318160ddd1461028d57600080fd5b806301ffc9a7146101df578063046f7da21461020857806306fdde0314610212575b600080fd5b6101f36101ed36600461137c565b50600090565b60405190151581526020015b60405180910390f35b610210610449565b005b6040805180820190915260088152672b27aca91029aaa160c11b60208201525b6040516101ff9190611426565b61024d6101ed3660046113a6565b6040516001600160a01b0390911681526020016101ff565b610210610273366004611335565b5050565b60035461010090046001600160a01b031661024d565b61029660015481565b6040519081526020016101ff565b6102106102b23660046111e6565b505050565b6102106102c53660046113d8565b610488565b6102966102d8366004611191565b60086020526000908152604090205481565b336000908152600860205260409020544211156101f3565b61024d6103103660046113a6565b61056c565b610210610323366004611191565b6105e6565b610296610336366004611191565b610705565b61021061079b565b610210610351366004611335565b6107d1565b6102106103643660046113d8565b61090a565b6102106109ad565b61021061037f366004611191565b6109e6565b6000546001600160a01b031661024d565b6102106103a33660046113d8565b610aeb565b6102106103b63660046113a6565b610ba6565b610232610cc8565b6102106103d13660046113fa565b610d5a565b6102106102733660046112fe565b6103f76103f23660046113a6565b610df1565b604080519283526020830191909152016101ff565b61021061041a366004611222565b50505050565b6101f361042e3660046111b3565b600092915050565b610210610444366004611191565b610e1f565b6000546001600160a01b0316331461047c5760405162461bcd60e51b8152600401610473906114a6565b60405180910390fd5b6003805460ff19169055565b816104d15760405162461bcd60e51b815260206004820152601960248201527829bab11d1024b73b30b634b21039bab110323ab930ba34b7b760391b6044820152606401610473565b33600090815260076020526040902054156104f057610273828261090a565b600154336000818152600760209081526040808320859055848352600690915280822080546001600160a01b031916841790555183929130917fddf252ad1be2c89b69c2b068fc378daa952ba7f163c4a11628f55a4df523b3ef9190a46001805490600061055d83611564565b91905055506102b28383610eb7565b6000818152600660205260408120546001600160a01b0316806105e05760405162461bcd60e51b815260206004820152602660248201527f5375623a206f776e657220717565727920666f72206e6f6e6578697374656e74604482015265103a37b5b2b760d11b6064820152608401610473565b92915050565b60035461010090046001600160a01b031633148061060e57506000546001600160a01b031633145b61062a5760405162461bcd60e51b81526004016104739061147b565b600580546001600160a01b0319166001600160a01b038316908117909155604080516318160ddd60e01b815290516318160ddd91600480820192602092909190829003018186803b15801561067e57600080fd5b505afa158015610692573d6000803e3d6000fd5b505050506040513d601f19601f820116820180604052508101906106b691906113bf565b6107025760405162461bcd60e51b815260206004820152601a60248201527f536574207061796d656e743a20496e76616c69642045524332300000000000006044820152606401610473565b50565b60006001600160a01b03821661076d5760405162461bcd60e51b815260206004820152602760248201527f5375623a2062616c616e636520717565727920666f7220746865207a65726f206044820152666164647265737360c81b6064820152608401610473565b6001600160a01b0382166000908152600760205260409020541561079357506001919050565b506000919050565b6000546001600160a01b031633146107c55760405162461bcd60e51b8152600401610473906114a6565b6107cf6000611125565b565b6000546001600160a01b031633146107fb5760405162461bcd60e51b8152600401610473906114a6565b6001600160a01b03821660009081526007602052604090205461089757600180546001600160a01b03841660008181526007602090815260408083208590559382526006905282812080546001600160a01b03191683179055925491519192909130917fddf252ad1be2c89b69c2b068fc378daa952ba7f163c4a11628f55a4df523b3ef91a46001805490600061089183611564565b91905055505b6001600160a01b0382166000908152600860205260409020544211156108c6576108c181426114db565b6108ea565b6001600160a01b0382166000908152600860205260409020546108ea9082906114db565b6001600160a01b0390921660009081526008602052604090209190915550565b816109535760405162461bcd60e51b815260206004820152601960248201527829bab11d1024b73b30b634b21039bab110323ab930ba34b7b760391b6044820152606401610473565b336000908152600760205260409020546109a35760405162461bcd60e51b815260206004820152601160248201527014dd588e88139bc81cdd58881bdddb9959607a1b6044820152606401610473565b6102738282610eb7565b6000546001600160a01b031633146109d75760405162461bcd60e51b8152600401610473906114a6565b6003805460ff19166001179055565b6000546001600160a01b03163314610a105760405162461bcd60e51b8152600401610473906114a6565b6001600160a01b038116600090815260076020526040902054610a755760405162461bcd60e51b815260206004820152601860248201527f537562206275726e3a206e6f20746f6b656e206f776e656400000000000000006044820152606401610473565b6001600160a01b03811660008181526007602090815260408083208054908490558084526006835281842080546001600160a01b031916905584845260089092528083208390555190928392917fddf252ad1be2c89b69c2b068fc378daa952ba7f163c4a11628f55a4df523b3ef908390a45050565b60035461010090046001600160a01b0316331480610b1357506000546001600160a01b031633145b610b2f5760405162461bcd60e51b81526004016104739061147b565b604080518082019091529081526020810191825260028054600181018255600082905291517f405787fa12a823e0f2b7631cc41b3ba8828b3321ca811111fa75cd3aa3bb5ace929091029182015590517f405787fa12a823e0f2b7631cc41b3ba8828b3321ca811111fa75cd3aa3bb5acf90910155565b60035461010090046001600160a01b0316331480610bce57506000546001600160a01b031633145b610bea5760405162461bcd60e51b81526004016104739061147b565b6002548110610c305760405162461bcd60e51b81526020600482015260126024820152710a6eac47440d2dcecc2d8d2c840d2dcc8caf60731b6044820152606401610473565b60028054610c4090600190611512565b81548110610c5057610c506115ab565b906000526020600020906002020160028281548110610c7157610c716115ab565b906000526020600020906002020160008201548160000155600182015481600101559050506002805480610ca757610ca7611595565b60008281526020812060026000199093019283020181815560010155905550565b606060048054610cd790611529565b80601f0160208091040260200160405190810160405280929190818152602001828054610d0390611529565b8015610d505780601f10610d2557610100808354040283529160200191610d50565b820191906000526020600020905b815481529060010190602001808311610d3357829003601f168201915b5050505050905090565b60035461010090046001600160a01b0316331480610d8257506000546001600160a01b031633145b610d9e5760405162461bcd60e51b81526004016104739061147b565b8260028281548110610db257610db26115ab565b9060005260206000209060020201600101819055508160028281548110610ddb57610ddb6115ab565b6000918252602090912060029091020155505050565b60028181548110610e0157600080fd5b60009182526020909120600290910201805460019091015490915082565b6000546001600160a01b03163314610e495760405162461bcd60e51b8152600401610473906114a6565b6001600160a01b038116610eae5760405162461bcd60e51b815260206004820152602660248201527f4f776e61626c653a206e6577206f776e657220697320746865207a65726f206160448201526564647265737360d01b6064820152608401610473565b61070281611125565b60035460ff1615610efb5760405162461bcd60e51b815260206004820152600e60248201526d10dc99585d1bdc881c185d5cd95960921b6044820152606401610473565b600060028281548110610f1057610f106115ab565b9060005260206000209060020201600101549050600060028381548110610f3957610f396115ab565b600091825260208220600290910201549150610f5585846114f3565b90506000610f6386846114f3565b600554604051636eb1769f60e11b815233600482015230602482015291925083916001600160a01b039091169063dd62ed3e9060440160206040518083038186803b158015610fb157600080fd5b505afa158015610fc5573d6000803e3d6000fd5b505050506040513d601f19601f82011682018060405250810190610fe991906113bf565b10156110305760405162461bcd60e51b815260206004820152601660248201527512515490cc8c0e881a5b9cdd5988185c1c1c9bdd985b60521b6044820152606401610473565b336000908152600860205260409020544211156110565761105181426114db565b611071565b336000908152600860205260409020546110719082906114db565b33600081815260086020526040908190209290925560055460035492516323b872dd60e01b815260048101929092526101009092046001600160a01b03908116602483015260448201859052909116906323b872dd90606401602060405180830381600087803b1580156110e457600080fd5b505af11580156110f8573d6000803e3d6000fd5b505050506040513d601f19601f8201168201806040525081019061111c919061135f565b50505050505050565b600080546001600160a01b038381166001600160a01b0319831681178455604051919092169283917f8be0079c531659141344cd1fd0a4f28419497f9722a3daafe3b4186f6b6457e09190a35050565b80356001600160a01b038116811461118c57600080fd5b919050565b6000602082840312156111a357600080fd5b6111ac82611175565b9392505050565b600080604083850312156111c657600080fd5b6111cf83611175565b91506111dd60208401611175565b90509250929050565b6000806000606084860312156111fb57600080fd5b61120484611175565b925061121260208501611175565b9150604084013590509250925092565b6000806000806080858703121561123857600080fd5b61124185611175565b935061124f60208601611175565b925060408501359150606085013567ffffffffffffffff8082111561127357600080fd5b818701915087601f83011261128757600080fd5b813581811115611299576112996115c1565b604051601f8201601f19908116603f011681019083821181831017156112c1576112c16115c1565b816040528281528a60208487010111156112da57600080fd5b82602086016020830137600060208483010152809550505050505092959194509250565b6000806040838503121561131157600080fd5b61131a83611175565b9150602083013561132a816115d7565b809150509250929050565b6000806040838503121561134857600080fd5b61135183611175565b946020939093013593505050565b60006020828403121561137157600080fd5b81516111ac816115d7565b60006020828403121561138e57600080fd5b81356001600160e01b0319811681146111ac57600080fd5b6000602082840312156113b857600080fd5b5035919050565b6000602082840312156113d157600080fd5b5051919050565b600080604083850312156113eb57600080fd5b50508035926020909101359150565b60008060006060848603121561140f57600080fd5b505081359360208301359350604090920135919050565b600060208083528351808285015260005b8181101561145357858101830151858201604001528201611437565b81811115611465576000604083870101525b50601f01601f1916929092016040019392505050565b60208082526011908201527014dd588e881d5b985d5d1a1bdc9a5e9959607a1b604082015260600190565b6020808252818101527f4f776e61626c653a2063616c6c6572206973206e6f7420746865206f776e6572604082015260600190565b600082198211156114ee576114ee61157f565b500190565b600081600019048311821515161561150d5761150d61157f565b500290565b6000828210156115245761152461157f565b500390565b600181811c9082168061153d57607f821691505b6020821081141561155e57634e487b7160e01b600052602260045260246000fd5b50919050565b60006000198214156115785761157861157f565b5060010190565b634e487b7160e01b600052601160045260246000fd5b634e487b7160e01b600052603160045260246000fd5b634e487b7160e01b600052603260045260246000fd5b634e487b7160e01b600052604160045260246000fd5b801515811461070257600080fdfea2646970667358221220045907546f679fb027433f33ce8907526c9bdc361f45391599176e2452a92aa264736f6c63430008060033",
  "immutableReferences": {},
  "source": "pragma solidity ^0.8.6;\r\n\r\n// SPDX-License-Identifier: GPL\r\n\r\nimport \"@openzeppelin/contracts/access/Ownable.sol\";\r\nimport \"@openzeppelin/contracts/token/ERC721/IERC721.sol\";\r\nimport \"@openzeppelin/contracts/token/ERC20/IERC20.sol\";\r\n\r\n\r\n/// @author DrGorilla.eth / Voyager Media Group\r\n/// @title Memories Subscription: individual creators\r\n/// @notice this is the generic NFT compatible subscription token.\r\n/// @dev This contract is non-custodial. Accepted token is set by factory. totalySupply is, de facto, tthe current id minted,\r\n/// prices are expressed in wei per seconds.\r\n\r\ncontract VoyrSubscriptions is IERC721, Ownable {\r\n\r\n    uint256 public totalSupply;\r\n    \r\n    struct Plan {\r\n        uint256 subscription_length;\r\n        uint256 price;\r\n    }\r\n\r\n    Plan[] public plans; //each elt is a plan as in \"Pay PRICE token for SUBSCRIPTION_LENGTH seconds\"\r\n\r\n    bool paused;\r\n\r\n    address creator;\r\n\r\n    string private _symbol;\r\n\r\n    IERC20 payment_token;\r\n\r\n    mapping(uint256 => address) private _owners;\r\n    mapping(address => uint256) private _owned; \r\n    mapping(address => uint256) public expirations; //adr->timestamp of the end of current subscription\r\n\r\n    modifier onlyAdmin {\r\n        require(msg.sender == creator || msg.sender == owner(), \"Sub: unauthorized\");\r\n        _;\r\n    }\r\n\r\n    constructor(address _creator, string memory _id, address token_adr) {\r\n        _symbol = _id;\r\n        creator = _creator;\r\n        payment_token = IERC20(token_adr);\r\n        totalSupply = 1; //0 reserved for invalid entry\r\n    }\r\n\r\n    function balanceOf(address _owner) public view virtual override returns (uint256) {\r\n        require(_owner != address(0), \"Sub: balance query for the zero address\");\r\n        if(_owned[_owner] != 0) return 1;\r\n        return 0;\r\n    }\r\n\r\n    function ownerOf(uint256 tokenId) public view virtual override returns (address) {\r\n        address _owner = _owners[tokenId];\r\n        require(_owner != address(0), \"Sub: owner query for nonexistent token\");\r\n        return _owner;\r\n    }\r\n\r\n    function name() public view virtual returns (string memory) {\r\n        return \"VOYR SUB\";\r\n    }\r\n\r\n    function symbol() public view virtual returns (string memory) {\r\n        return _symbol;\r\n    }\r\n\r\n    function newSub(uint256 number_of_periods, uint256 plan) external {\r\n        require(number_of_periods != 0, \"Sub: Invalid sub duration\");\r\n        if(_owned[msg.sender] != 0) renewSub(number_of_periods, plan);\r\n        else {\r\n            uint256 current_id = totalSupply;\r\n            _owned[msg.sender] = current_id;\r\n            _owners[current_id] = msg.sender;\r\n            emit Transfer(address(this), msg.sender, current_id);\r\n            totalSupply++;\r\n            _processPayment(number_of_periods, plan);\r\n        }\r\n    }\r\n\r\n    function renewSub(uint256 number_of_periods, uint256 plan) public {\r\n        require(number_of_periods != 0, \"Sub: Invalid sub duration\");\r\n        require(_owned[msg.sender] != 0, \"Sub: No sub owned\");\r\n        _processPayment(number_of_periods, plan);\r\n    }\r\n\r\n    function _processPayment(uint256 number_of_periods, uint256 plan) internal {\r\n        require(!paused, \"Creator paused\");\r\n        uint256 price = plans[plan].price;\r\n        uint256 subscription_length = plans[plan].subscription_length;\r\n        uint256 to_pay = price  * number_of_periods;\r\n        uint256 total_duration = subscription_length * number_of_periods;\r\n        require(payment_token.allowance(msg.sender, address(this)) >= to_pay, \"IERC20: insuf approval\");\r\n        \r\n        expirations[msg.sender] = expirations[msg.sender] >= block.timestamp ?  expirations[msg.sender] + total_duration : block.timestamp + total_duration;\r\n        \r\n        payment_token.transferFrom(msg.sender, creator, to_pay);\r\n    }\r\n\r\n    function addNewPlan(uint256 price, uint256 duration) external onlyAdmin {\r\n        Plan memory new_plan;\r\n        new_plan.subscription_length = duration;\r\n        new_plan.price = price;\r\n        plans.push(new_plan);\r\n    }\r\n\r\n    function modifyPlan(uint256 price, uint256 duration, uint256 index) external onlyAdmin {\r\n        plans[index].price = price;\r\n        plans[index].subscription_length = duration;\r\n    }\r\n\r\n    function deletePlan(uint256 index) external onlyAdmin {\r\n        require(index < plans.length, \"Sub: invalid index\");\r\n        plans[index] = plans[plans.length-1];\r\n        plans.pop();\r\n    }\r\n \r\n    function pause() external onlyOwner {\r\n        paused = true;\r\n    }\r\n\r\n    function resume() external onlyOwner {\r\n        paused = false;\r\n    }\r\n\r\n    function burn(address _adr) external onlyOwner {\r\n        require(_owned[_adr] != 0, \"Sub burn: no token owned\");\r\n        uint256 id = _owned[_adr];\r\n        delete _owned[_adr];\r\n        _owners[id] = address(0);\r\n        delete expirations[_adr];\r\n\r\n        emit Transfer(_adr, address(0), id);\r\n    }\r\n    \r\n    function sendSubscription(address _adr, uint256 length) external onlyOwner {\r\n        if(_owned[_adr] == 0) {\r\n            _owned[_adr] = totalSupply;\r\n            _owners[totalSupply] = _adr;\r\n            emit Transfer(address(this), _adr, totalSupply);\r\n            totalSupply++;\r\n        }\r\n        expirations[_adr] = expirations[_adr] >= block.timestamp ?  expirations[_adr] + length : block.timestamp + length;\r\n    }\r\n\r\n    function setPaymentToken(address _token) external onlyAdmin {\r\n        payment_token = IERC20(_token);\r\n        require(payment_token.totalSupply() != 0, \"Set payment: Invalid ERC20\");\r\n    }\r\n\r\n    /// @dev frontend integration: prefer accessing the mapping itself to compare with Date.now() (instead of last block timestamp)\r\n    function subscriptionActive() external view returns (bool) {\r\n        return expirations[msg.sender] >= block.timestamp;\r\n    }\r\n\r\n    function getCreator() external view returns (address) {\r\n        return creator;\r\n    }\r\n\r\n\r\n/// @dev no use case:\r\n    function approve(address to, uint256 tokenId) public virtual override {}\r\n    function getApproved(uint256 tokenId) public view virtual override returns (address) {return address(0);}\r\n    function setApprovalForAll(address operator, bool approved) public virtual override {}\r\n    function isApprovedForAll(address owner, address operator) public view virtual override returns (bool) {return false;}\r\n    function transferFrom(address from,address to,uint256 tokenId) public virtual override {}\r\n    function safeTransferFrom(address from,address to,uint256 tokenId) public virtual override {}\r\n    function safeTransferFrom(address from,address to,uint256 tokenId,bytes memory _data) public virtual override {}\r\n    function supportsInterface(bytes4 interfaceId) external pure override returns (bool) {return false;} \r\n\r\n}\r\n",
  "sourcePath": "/Volumes/ssd/solidity/voyr_repoS/subscription/contracts/VoyrSubscriptions.sol",
  "compiler": {
    "name": "solc",
    "version": "0.8.6+commit.11564f7e.Emscripten.clang"
  },
  "schemaVersion": "3.4.1",
  "updatedAt": "2021-10-08T12:31:17.443Z",
  "devdoc": {
    "author": "DrGorilla.eth / Voyager Media Group",
    "details": "This contract is non-custodial. Accepted token is set by factory. totalySupply is, de facto, tthe current id minted, prices are expressed in wei per seconds.",
    "kind": "dev",
    "methods": {
      "approve(address,uint256)": {
        "details": "no use case:"
      },
      "getApproved(uint256)": {
        "details": "Returns the account approved for `tokenId` token. Requirements: - `tokenId` must exist."
      },
      "isApprovedForAll(address,address)": {
        "details": "Returns if the `operator` is allowed to manage all of the assets of `owner`. See {setApprovalForAll}"
      },
      "owner()": {
        "details": "Returns the address of the current owner."
      },
      "ownerOf(uint256)": {
        "details": "Returns the owner of the `tokenId` token. Requirements: - `tokenId` must exist."
      },
      "renounceOwnership()": {
        "details": "Leaves the contract without owner. It will not be possible to call `onlyOwner` functions anymore. Can only be called by the current owner. NOTE: Renouncing ownership will leave the contract without an owner, thereby removing any functionality that is only available to the owner."
      },
      "safeTransferFrom(address,address,uint256)": {
        "details": "Safely transfers `tokenId` token from `from` to `to`, checking first that contract recipients are aware of the ERC721 protocol to prevent tokens from being forever locked. Requirements: - `from` cannot be the zero address. - `to` cannot be the zero address. - `tokenId` token must exist and be owned by `from`. - If the caller is not `from`, it must be have been allowed to move this token by either {approve} or {setApprovalForAll}. - If `to` refers to a smart contract, it must implement {IERC721Receiver-onERC721Received}, which is called upon a safe transfer. Emits a {Transfer} event."
      },
      "subscriptionActive()": {
        "details": "frontend integration: prefer accessing the mapping itself to compare with Date.now() (instead of last block timestamp)"
      },
      "supportsInterface(bytes4)": {
        "details": "Returns true if this contract implements the interface defined by `interfaceId`. See the corresponding https://eips.ethereum.org/EIPS/eip-165#how-interfaces-are-identified[EIP section] to learn more about how these ids are created. This function call must use less than 30 000 gas."
      },
      "transferFrom(address,address,uint256)": {
        "details": "Transfers `tokenId` token from `from` to `to`. WARNING: Usage of this method is discouraged, use {safeTransferFrom} whenever possible. Requirements: - `from` cannot be the zero address. - `to` cannot be the zero address. - `tokenId` token must be owned by `from`. - If the caller is not `from`, it must be approved to move this token by either {approve} or {setApprovalForAll}. Emits a {Transfer} event."
      },
      "transferOwnership(address)": {
        "details": "Transfers ownership of the contract to a new account (`newOwner`). Can only be called by the current owner."
      }
    },
    "title": "Memories Subscription: individual creators",
    "version": 1
  },
  "userdoc": {
    "kind": "user",
    "methods": {},
    "notice": "this is the generic NFT compatible subscription token.",
    "version": 1
  }
}