{
  "contractName": "VoyrMemoriesFactory",
  "abi": [
    {
      "inputs": [],
      "stateMutability": "nonpayable",
      "type": "constructor"
    },
    {
      "anonymous": false,
      "inputs": [
        {
          "indexed": true,
          "internalType": "address",
          "name": "previousOwner",
          "type": "address"
        },
        {
          "indexed": true,
          "internalType": "address",
          "name": "newOwner",
          "type": "address"
        }
      ],
      "name": "OwnershipTransferred",
      "type": "event"
    },
    {
      "inputs": [],
      "name": "owner",
      "outputs": [
        {
          "internalType": "address",
          "name": "",
          "type": "address"
        }
      ],
      "stateMutability": "view",
      "type": "function"
    },
    {
      "inputs": [],
      "name": "renounceOwnership",
      "outputs": [],
      "stateMutability": "nonpayable",
      "type": "function"
    },
    {
      "inputs": [
        {
          "internalType": "address",
          "name": "newOwner",
          "type": "address"
        }
      ],
      "name": "transferOwnership",
      "outputs": [],
      "stateMutability": "nonpayable",
      "type": "function"
    },
    {
      "inputs": [
        {
          "internalType": "address",
          "name": "_creator",
          "type": "address"
        },
        {
          "internalType": "address",
          "name": "token_adr",
          "type": "address"
        }
      ],
      "name": "newCreator",
      "outputs": [],
      "stateMutability": "nonpayable",
      "type": "function"
    },
    {
      "inputs": [
        {
          "internalType": "uint256",
          "name": "creator_id",
          "type": "uint256"
        },
        {
          "internalType": "address",
          "name": "user",
          "type": "address"
        }
      ],
      "name": "burn",
      "outputs": [],
      "stateMutability": "nonpayable",
      "type": "function"
    },
    {
      "inputs": [
        {
          "internalType": "uint256",
          "name": "creator_id",
          "type": "uint256"
        },
        {
          "internalType": "address",
          "name": "receiver",
          "type": "address"
        },
        {
          "internalType": "uint256",
          "name": "length",
          "type": "uint256"
        }
      ],
      "name": "give",
      "outputs": [],
      "stateMutability": "nonpayable",
      "type": "function"
    },
    {
      "inputs": [
        {
          "internalType": "uint256",
          "name": "creator_id",
          "type": "uint256"
        },
        {
          "internalType": "uint256",
          "name": "price",
          "type": "uint256"
        }
      ],
      "name": "setPrice",
      "outputs": [],
      "stateMutability": "nonpayable",
      "type": "function"
    },
    {
      "inputs": [
        {
          "internalType": "uint256",
          "name": "creator_id",
          "type": "uint256"
        }
      ],
      "name": "suspendCreator",
      "outputs": [],
      "stateMutability": "nonpayable",
      "type": "function"
    },
    {
      "inputs": [
        {
          "internalType": "uint256",
          "name": "creator_id",
          "type": "uint256"
        }
      ],
      "name": "resumeCreator",
      "outputs": [],
      "stateMutability": "nonpayable",
      "type": "function"
    }
  ],
  "bytecode": "0x608060405234801561001057600080fd5b5061001a3361001f565b61006f565b600080546001600160a01b038381166001600160a01b0319831681178455604051919092169283917f8be0079c531659141344cd1fd0a4f28419497f9722a3daafe3b4186f6b6457e09190a35050565b6120438061007e6000396000f3fe60806040523480156200001157600080fd5b50600436106200009f5760003560e01c8063f2fde38b116200006e578063f2fde38b14620000fd578063f46ed2261462000114578063f570ad05146200012b578063f7d975771462000142578063fcd3533c146200015957600080fd5b8063181e7a9a14620000a4578063715018a614620000bd5780638da5cb5b14620000c75780639b44a3f114620000e6575b600080fd5b620000bb620000b5366004620008a2565b62000170565b005b620000bb620002c3565b600054604080516001600160a01b039092168252519081900360200190f35b620000bb620000f73660046200091a565b620002fe565b620000bb6200010e3660046200087d565b620003b7565b620000bb62000125366004620008da565b62000459565b620000bb6200013c366004620008da565b62000501565b620000bb6200015336600462000952565b6200058d565b620000bb6200016a366004620008f4565b6200063e565b6001600160a01b03821660009081526002602052604090205460ff1615620001d15760405162461bcd60e51b815260206004820152600f60248201526e30b63932b0b23c9031b932b0ba37b960891b60448201526064015b60405180910390fd5b6000620001e0600154620006bd565b604051602001620001f2919062000975565b60405160208183030381529060405290506000838284604051620002169062000852565b6200022493929190620009a2565b604051809103906000f08015801562000241573d6000803e3d6000fd5b506003805460018082019092557fc2575a0e9e593c00f959f8c92f12db2869c3395a3b0502d05e2516446f71f85b0180546001600160a01b0319166001600160a01b038481169190911790915586166000908152600260205260408120805460ff1916831790558154929350620002b88362000add565b919050555050505050565b6000546001600160a01b03163314620002f05760405162461bcd60e51b8152600401620001c890620009ee565b620002fc600062000802565b565b6000546001600160a01b031633146200032b5760405162461bcd60e51b8152600401620001c890620009ee565b6003838154811062000341576200034162000b11565b6000918252602090912001546040516340507a9560e11b81526001600160a01b03848116600483015260248201849052909116906380a0f52a90604401600060405180830381600087803b1580156200039957600080fd5b505af1158015620003ae573d6000803e3d6000fd5b50505050505050565b6000546001600160a01b03163314620003e45760405162461bcd60e51b8152600401620001c890620009ee565b6001600160a01b0381166200044b5760405162461bcd60e51b815260206004820152602660248201527f4f776e61626c653a206e6577206f776e657220697320746865207a65726f206160448201526564647265737360d01b6064820152608401620001c8565b620004568162000802565b50565b6000546001600160a01b03163314620004865760405162461bcd60e51b8152600401620001c890620009ee565b600381815481106200049c576200049c62000b11565b600091825260208220015460408051638456cb5960e01b815290516001600160a01b0390921692638456cb599260048084019382900301818387803b158015620004e557600080fd5b505af1158015620004fa573d6000803e3d6000fd5b5050505050565b6000546001600160a01b031633146200052e5760405162461bcd60e51b8152600401620001c890620009ee565b6003818154811062000544576200054462000b11565b600091825260208220015460408051630237bed160e11b815290516001600160a01b039092169263046f7da29260048084019382900301818387803b158015620004e557600080fd5b6000546001600160a01b03163314620005ba5760405162461bcd60e51b8152600401620001c890620009ee565b60038281548110620005d057620005d062000b11565b6000918252602090912001546040516318b2007160e01b8152600481018390526001600160a01b03909116906318b20071906024015b600060405180830381600087803b1580156200062157600080fd5b505af115801562000636573d6000803e3d6000fd5b505050505050565b6000546001600160a01b031633146200066b5760405162461bcd60e51b8152600401620001c890620009ee565b6003828154811062000681576200068162000b11565b60009182526020909120015460405163226bf2d160e21b81526001600160a01b038381166004830152909116906389afcb449060240162000606565b606081620006e25750506040805180820190915260018152600360fc1b602082015290565b8160005b8115620007125780620006f98162000add565b91506200070a9050600a8362000a4b565b9150620006e6565b60008167ffffffffffffffff81111562000730576200073062000b27565b6040519080825280601f01601f1916602001820160405280156200075b576020820181803683370190505b509050815b8515620007f9576200077460018262000a90565b9050600062000785600a8862000a4b565b6200079290600a62000a6e565b6200079e908862000a90565b620007ab90603062000a23565b905060008160f81b905080848481518110620007cb57620007cb62000b11565b60200101906001600160f81b031916908160001a905350620007ef600a8962000a4b565b9750505062000760565b50949350505050565b600080546001600160a01b038381166001600160a01b0319831681178455604051919092169283917f8be0079c531659141344cd1fd0a4f28419497f9722a3daafe3b4186f6b6457e09190a35050565b6114d08062000b3e83390190565b80356001600160a01b03811681146200087857600080fd5b919050565b6000602082840312156200089057600080fd5b6200089b8262000860565b9392505050565b60008060408385031215620008b657600080fd5b620008c18362000860565b9150620008d16020840162000860565b90509250929050565b600060208284031215620008ed57600080fd5b5035919050565b600080604083850312156200090857600080fd5b82359150620008d16020840162000860565b6000806000606084860312156200093057600080fd5b83359250620009426020850162000860565b9150604084013590509250925092565b600080604083850312156200096657600080fd5b50508035926020909101359150565b62034b2160ed1b8152600082516200099581600385016020870162000aaa565b9190910160030192915050565b600060018060a01b038086168352606060208401528451806060850152620009d281608086016020890162000aaa565b9316604083015250601f91909101601f19160160800192915050565b6020808252818101527f4f776e61626c653a2063616c6c6572206973206e6f7420746865206f776e6572604082015260600190565b600060ff821660ff84168060ff0382111562000a435762000a4362000afb565b019392505050565b60008262000a6957634e487b7160e01b600052601260045260246000fd5b500490565b600081600019048311821515161562000a8b5762000a8b62000afb565b500290565b60008282101562000aa55762000aa562000afb565b500390565b60005b8381101562000ac757818101518382015260200162000aad565b8381111562000ad7576000848401525b50505050565b600060001982141562000af45762000af462000afb565b5060010190565b634e487b7160e01b600052601160045260246000fd5b634e487b7160e01b600052603260045260246000fd5b634e487b7160e01b600052604160045260246000fdfe60806040523480156200001157600080fd5b50604051620014d0380380620014d08339810160408190526200003491620001aa565b6200003f3362000097565b815162000054906004906020850190620000e7565b5060038054610100600160a81b0319166101006001600160a01b0395861602179055600580546001600160a01b0319169190931617909155506001805562000302565b600080546001600160a01b038381166001600160a01b0319831681178455604051919092169283917f8be0079c531659141344cd1fd0a4f28419497f9722a3daafe3b4186f6b6457e09190a35050565b828054620000f590620002af565b90600052602060002090601f01602090048101928262000119576000855562000164565b82601f106200013457805160ff191683800117855562000164565b8280016001018555821562000164579182015b828111156200016457825182559160200191906001019062000147565b506200017292915062000176565b5090565b5b8082111562000172576000815560010162000177565b80516001600160a01b0381168114620001a557600080fd5b919050565b600080600060608486031215620001c057600080fd5b620001cb846200018d565b602085810151919450906001600160401b0380821115620001eb57600080fd5b818701915087601f8301126200020057600080fd5b815181811115620002155762000215620002ec565b604051601f8201601f19908116603f01168101908382118183101715620002405762000240620002ec565b816040528281528a868487010111156200025957600080fd5b600093505b828410156200027d57848401860151818501870152928501926200025e565b828411156200028f5760008684830101525b809750505050505050620002a6604085016200018d565b90509250925092565b600181811c90821680620002c457607f821691505b60208210811415620002e657634e487b7160e01b600052602260045260246000fd5b50919050565b634e487b7160e01b600052604160045260246000fd5b6111be80620003126000396000f3fe608060405234801561001057600080fd5b50600436106101585760003560e01c8063715018a6116100c357806395d89b411161007c57806395d89b41146102dc578063a22cb465146102e4578063b88d4fde146102f2578063c1868da814610306578063e985e9c514610319578063f2fde38b1461032f57600080fd5b8063715018a61461028257806380a0f52a1461028a5780638456cb591461029d57806389afcb44146102a557806389b49bcc146102b85780638da5cb5b146102cb57600080fd5b806323b872dd1161011557806323b872dd146102085780633c74db0f1461021b57806342842e0e146102085780636352211e146102495780636a326ab11461025c57806370a082311461026f57600080fd5b806301ffc9a71461015d578063046f7da21461018657806306fdde0314610190578063081812fc146101bd578063095ea7b3146101e357806318b20071146101f5575b600080fd5b61017161016b366004610fdb565b50600090565b60405190151581526020015b60405180910390f35b61018e610342565b005b6040805180820190915260088152672b27aca91029aaa160c11b60208201525b60405161017d9190611037565b6101cb61016b366004611005565b6040516001600160a01b03909116815260200161017d565b61018e6101f1366004610f94565b5050565b61018e610203366004611005565b610381565b61018e610216366004610e45565b505050565b61023b610229366004610df0565b60086020526000908152604090205481565b60405190815260200161017d565b6101cb610257366004611005565b6103ee565b61018e61026a366004610df0565b61046b565b61023b61027d366004610df0565b61059e565b61018e610637565b61018e610298366004610f94565b61066d565b61018e610794565b61018e6102b3366004610df0565b6107cd565b61018e6102c6366004611005565b6108c3565b6000546001600160a01b03166101cb565b6101b061095b565b61018e6101f1366004610f5d565b61018e610300366004610e81565b50505050565b61018e610314366004611005565b6109ed565b610171610327366004610e12565b600092915050565b61018e61033d366004610df0565b610ada565b6000546001600160a01b031633146103755760405162461bcd60e51b815260040161036c9061108c565b60405180910390fd5b6003805460ff19169055565b60035461010090046001600160a01b03163314806103a957506000546001600160a01b031633145b6103e95760405162461bcd60e51b815260206004820152601160248201527014dd588e881d5b985d5d1a1bdc9a5e9959607a1b604482015260640161036c565b600255565b6000818152600660205260408120546001600160a01b0316806104655760405162461bcd60e51b815260206004820152602960248201527f4552433732313a206f776e657220717565727920666f72206e6f6e657869737460448201526832b73a103a37b5b2b760b91b606482015260840161036c565b92915050565b60035461010090046001600160a01b031633148061049357506000546001600160a01b031633145b6104d35760405162461bcd60e51b815260206004820152601160248201527014dd588e881d5b985d5d1a1bdc9a5e9959607a1b604482015260640161036c565b600580546001600160a01b0319166001600160a01b038316908117909155604080516318160ddd60e01b815290516318160ddd91600480820192602092909190829003018186803b15801561052757600080fd5b505afa15801561053b573d6000803e3d6000fd5b505050506040513d601f19601f8201168201806040525081019061055f919061101e565b61059b5760405162461bcd60e51b815260206004820152600d60248201526c0496e76616c696420455243323609c1b604482015260640161036c565b50565b60006001600160a01b0382166106095760405162461bcd60e51b815260206004820152602a60248201527f4552433732313a2062616c616e636520717565727920666f7220746865207a65604482015269726f206164647265737360b01b606482015260840161036c565b6001600160a01b0382166000908152600760205260409020541561062f57506001919050565b506000919050565b6000546001600160a01b031633146106615760405162461bcd60e51b815260040161036c9061108c565b61066b6000610b6e565b565b6000546001600160a01b031633146106975760405162461bcd60e51b815260040161036c9061108c565b3360009081526007602052604090205461072157600180543360008181526007602090815260408083208590559382526006905282812080546001600160a01b03191683179055925491519192909130917fddf252ad1be2c89b69c2b068fc378daa952ba7f163c4a11628f55a4df523b3ef91a46001805490600061071b83611133565b91905055505b6001600160a01b0382166000908152600860205260409020544211156107505761074b81426110c1565b610774565b6001600160a01b0382166000908152600860205260409020546107749082906110c1565b6001600160a01b0390921660009081526008602052604090209190915550565b6000546001600160a01b031633146107be5760405162461bcd60e51b815260040161036c9061108c565b6003805460ff19166001179055565b6000546001600160a01b031633146107f75760405162461bcd60e51b815260040161036c9061108c565b6001600160a01b03811660009081526007602052604090205461084d5760405162461bcd60e51b815260206004820152600e60248201526d1b9bc81d1bdad95b881bdddb995960921b604482015260640161036c565b6001600160a01b03811660008181526007602090815260408083208054908490558084526006835281842080546001600160a01b031916905584845260089092528083208390555190928392917fddf252ad1be2c89b69c2b068fc378daa952ba7f163c4a11628f55a4df523b3ef908390a45050565b806109075760405162461bcd60e51b815260206004820152601460248201527324b73b30b634b21039bab110323ab930ba34b7b760611b604482015260640161036c565b336000908152600760205260409020546109525760405162461bcd60e51b815260206004820152600c60248201526b139bc81cdd58881bdddb995960a21b604482015260640161036c565b61059b81610bbe565b60606004805461096a906110f8565b80601f0160208091040260200160405190810160405280929190818152602001828054610996906110f8565b80156109e35780601f106109b8576101008083540402835291602001916109e3565b820191906000526020600020905b8154815290600101906020018083116109c657829003601f168201915b5050505050905090565b80610a315760405162461bcd60e51b815260206004820152601460248201527324b73b30b634b21039bab110323ab930ba34b7b760611b604482015260640161036c565b3360009081526007602052604090205415610a5f573360009081526007602052604090205461059b906108c3565b600154336000818152600760209081526040808320859055848352600690915280822080546001600160a01b031916841790555183929130917fddf252ad1be2c89b69c2b068fc378daa952ba7f163c4a11628f55a4df523b3ef9190a460018054906000610acc83611133565b91905055506101f182610bbe565b6000546001600160a01b03163314610b045760405162461bcd60e51b815260040161036c9061108c565b6001600160a01b038116610b695760405162461bcd60e51b815260206004820152602660248201527f4f776e61626c653a206e6577206f776e657220697320746865207a65726f206160448201526564647265737360d01b606482015260840161036c565b61059b815b600080546001600160a01b038381166001600160a01b0319831681178455604051919092169283917f8be0079c531659141344cd1fd0a4f28419497f9722a3daafe3b4186f6b6457e09190a35050565b60035460ff1615610c025760405162461bcd60e51b815260206004820152600e60248201526d10dc99585d1bdc881c185d5cd95960921b604482015260640161036c565b600081600254610c1291906110d9565b600554600354604051636eb1769f60e11b81523360048201526001600160a01b0361010090920482166024820152929350839291169063dd62ed3e9060440160206040518083038186803b158015610c6957600080fd5b505afa158015610c7d573d6000803e3d6000fd5b505050506040513d601f19601f82011682018060405250810190610ca1919061101e565b1015610ce85760405162461bcd60e51b815260206004820152601660248201527512515490cc8c0e881a5b9cdd5988185c1c1c9bdd985b60521b604482015260640161036c565b33600090815260086020526040902054421115610d0e57610d0982426110c1565b610d29565b33600090815260086020526040902054610d299083906110c1565b33600081815260086020526040908190209290925560055460035492516323b872dd60e01b815260048101929092526101009092046001600160a01b03908116602483015260448201849052909116906323b872dd90606401602060405180830381600087803b158015610d9c57600080fd5b505af1158015610db0573d6000803e3d6000fd5b505050506040513d601f19601f820116820180604052508101906102169190610fbe565b80356001600160a01b0381168114610deb57600080fd5b919050565b600060208284031215610e0257600080fd5b610e0b82610dd4565b9392505050565b60008060408385031215610e2557600080fd5b610e2e83610dd4565b9150610e3c60208401610dd4565b90509250929050565b600080600060608486031215610e5a57600080fd5b610e6384610dd4565b9250610e7160208501610dd4565b9150604084013590509250925092565b60008060008060808587031215610e9757600080fd5b610ea085610dd4565b9350610eae60208601610dd4565b925060408501359150606085013567ffffffffffffffff80821115610ed257600080fd5b818701915087601f830112610ee657600080fd5b813581811115610ef857610ef8611164565b604051601f8201601f19908116603f01168101908382118183101715610f2057610f20611164565b816040528281528a6020848701011115610f3957600080fd5b82602086016020830137600060208483010152809550505050505092959194509250565b60008060408385031215610f7057600080fd5b610f7983610dd4565b91506020830135610f898161117a565b809150509250929050565b60008060408385031215610fa757600080fd5b610fb083610dd4565b946020939093013593505050565b600060208284031215610fd057600080fd5b8151610e0b8161117a565b600060208284031215610fed57600080fd5b81356001600160e01b031981168114610e0b57600080fd5b60006020828403121561101757600080fd5b5035919050565b60006020828403121561103057600080fd5b5051919050565b600060208083528351808285015260005b8181101561106457858101830151858201604001528201611048565b81811115611076576000604083870101525b50601f01601f1916929092016040019392505050565b6020808252818101527f4f776e61626c653a2063616c6c6572206973206e6f7420746865206f776e6572604082015260600190565b600082198211156110d4576110d461114e565b500190565b60008160001904831182151516156110f3576110f361114e565b500290565b600181811c9082168061110c57607f821691505b6020821081141561112d57634e487b7160e01b600052602260045260246000fd5b50919050565b60006000198214156111475761114761114e565b5060010190565b634e487b7160e01b600052601160045260246000fd5b634e487b7160e01b600052604160045260246000fd5b801515811461059b57600080fdfea26469706673582212206c6372afed73e4bb85e339128a918e829d77ba2b7e8b2a3b9fa5be753af2998564736f6c63430008060033a2646970667358221220bb3085976ebdd9c84660cd61fc57f4259dfd7e22b274765bd037ba9ee44e96c864736f6c63430008060033",
  "immutableReferences": {},
  "source": "pragma solidity ^0.8.6;\r\n// SPDX-License-Identifier: GPL\r\n\r\n\r\nimport \"@openzeppelin/contracts/access/Ownable.sol\";\r\nimport \"./VoyrMemoriesSubscriptions.sol\";\r\n\r\n/// @author DrGorilla.eth / Voyager Media Group\r\n/// @title Memories Factory\r\n/// @notice this is the factory and controller for subscription contracts.\r\n/// Each contract created by this factory is init with the name 'VOYR SUB' \r\n/// and the symbol 'id XX' (where XX is the creator id)\r\n\r\ncontract VoyrMemoriesFactory is Ownable {\r\n\r\n    uint256 current_id;\r\n\r\n    mapping(address => bool) isCreator;\r\n\r\n    VoyrMemoriesSubscriptions[] child_contracts;\r\n\r\n    constructor () {}\r\n\r\n    function newCreator(address _creator, address token_adr) external {\r\n        require(!isCreator[_creator], \"already creator\");\r\n        string memory current_id_str = string(abi.encodePacked(\"id \", uint2str(current_id)));\r\n        VoyrMemoriesSubscriptions _adr = new VoyrMemoriesSubscriptions(_creator, current_id_str, token_adr);\r\n        child_contracts.push(_adr);\r\n        isCreator[_creator] = true;\r\n        current_id++;\r\n    }\r\n\r\n    /// @dev send the sub to creator_id from user to the burn address + cancel any ongoing sub\r\n    function burn(uint256 creator_id, address user) external onlyOwner {\r\n        child_contracts[creator_id].burn(user);\r\n    }\r\n\r\n    /// @dev create a new sub and mint if needed\r\n    function give(uint256 creator_id, address receiver, uint256 length) external onlyOwner {\r\n        child_contracts[creator_id].sendSubscription(receiver, length);\r\n    }\r\n\r\n    function setPrice(uint256 creator_id, uint256 price) external onlyOwner {\r\n        child_contracts[creator_id].setCurrentPrice(price);\r\n    }\r\n\r\n    function suspendCreator(uint256 creator_id) external onlyOwner {\r\n        child_contracts[creator_id].pause();\r\n    }\r\n\r\n    function resumeCreator(uint256 creator_id) external onlyOwner {\r\n        child_contracts[creator_id].resume();\r\n    }\r\n\r\n    function uint2str(uint _i) internal pure returns (string memory _uintAsString) {\r\n        if (_i == 0) {\r\n            return \"0\";\r\n        }\r\n        uint j = _i;\r\n        uint len;\r\n        while (j != 0) {\r\n            len++;\r\n            j /= 10;\r\n        }\r\n        bytes memory bstr = new bytes(len);\r\n        uint k = len;\r\n        while (_i != 0) {\r\n            k = k-1;\r\n            uint8 temp = (48 + uint8(_i - _i / 10 * 10));\r\n            bytes1 b1 = bytes1(temp);\r\n            bstr[k] = b1;\r\n            _i /= 10;\r\n        }\r\n        return string(bstr);\r\n    }\r\n\r\n\r\n}",
  "sourcePath": "/media/drgorilla/T7 Touch/solidity/voyr_repoS/subscription/contracts/VoyrMemoriesFactory.sol",
  "compiler": {
    "name": "solc",
    "version": "0.8.6+commit.11564f7e.Emscripten.clang"
  },
  "schemaVersion": "3.4.1",
  "updatedAt": "2021-09-21T13:07:42.471Z",
  "devdoc": {
    "author": "DrGorilla.eth / Voyager Media Group",
    "kind": "dev",
    "methods": {
      "burn(uint256,address)": {
        "details": "send the sub to creator_id from user to the burn address + cancel any ongoing sub"
      },
      "give(uint256,address,uint256)": {
        "details": "create a new sub and mint if needed"
      },
      "owner()": {
        "details": "Returns the address of the current owner."
      },
      "renounceOwnership()": {
        "details": "Leaves the contract without owner. It will not be possible to call `onlyOwner` functions anymore. Can only be called by the current owner. NOTE: Renouncing ownership will leave the contract without an owner, thereby removing any functionality that is only available to the owner."
      },
      "transferOwnership(address)": {
        "details": "Transfers ownership of the contract to a new account (`newOwner`). Can only be called by the current owner."
      }
    },
    "title": "Memories Factory",
    "version": 1
  },
  "userdoc": {
    "kind": "user",
    "methods": {},
    "notice": "this is the factory and controller for subscription contracts. Each contract created by this factory is init with the name 'VOYR SUB'  and the symbol 'id XX' (where XX is the creator id)",
    "version": 1
  }
}